:10000000C01E0020990D000029520000850D00003F
:10001000850D0000850D0000850D0000000000002A
:10002000000000000000000000000000590F000068
:10003000850D000000000000F50E0000850D000099
:100040003511000035110000351100003511000098
:100050003511000035110000351100003511000088
:100060003511000035110000351100003511000078
:100070003511000035110000351100003511000068
:100080003511000035110000351100003511000058
:100090003511000035110000351100003511000048
:1000A0003511000035110000351100003511000038
:1000B0003511000035110000351100003511000028
:1000C0003511000035110000351100003511000018
:1000D0003511000035110000351100003511000008
:1000E00035110000351100003511000035110000F8
:1000F00035110000351100003511000035110000E8
:10010000EC46A0E8F05F4FF000007047B0E8F05F09
:10011000E546080008BF0120704700BF2DE9F743FE
:100120004FF0FF384FF0FF39144D154C42464B4607
:100130002846192603F098FDA6601427284603F0E8
:1001400057FD0097A16811230022304600F090F976
:100150006FF0060642464B46284603F085FDA66032
:10016000284603F045FD0097A1681723002230467A
:1001700000F07EF903B0BDE8F08300BFBC010020B1
:1001800000000020014B00229A6070470000002010
:1001900008B5084800F0C2F9074908482E2200F0C7
:1001A00099F9074907482F2200F094F9BDE8084063
:1001B00000F0C4B9E06000000C6100004F4F000087
:1001C0001C6100001D01000073B50A2205460124D0
:1001D000B5FBF4F3092B15D80B4B1B6801930A26CA
:1001E000B5FBF4F3B3FBF6F206FB12333033D8B2AF
:1001F000019905F0CCFC2346092BB4FBF6F4EFD8AB
:1002000002B070BD5443E3E7205F000010B5041E48
:1002100005DA054B2D20196805F0B9FC644220462B
:10022000BDE81040FFF7D0BF205F0000082970B57F
:1002300028BF08210A4E05460C4604B970BD631E4E
:10024000DCB2A30025FA03F303F00F021046092ADB
:10025000316894BF3030373005F099FCEDE700BFCE
:10026000205F000070B5154E451E15F8010F00B94E
:1002700070BD3468A0F120035E2B214602D805F042
:1002800086FCF2E70D2805D15C2005F080FC2146B4
:100290007220F4E70A284FF05C0004D105F077FCE7
:1002A00021466E20EBE705F072FC2146782005F030
:1002B0006EFC28780221FFF7B9FFD6E7205F000027
:1002C00038B50D4604F050FE0B4B1C683A20214611
:1002D00005F05DFC2846FFF799FF21463A2005F01E
:1002E00056FC064B586804F03FFE21463A20BDE814
:1002F000384005F04CBC00BF205F0000E801002042
:1003000008B5074B01461868FFF7DAFF0548FFF705
:10031000A9FF054B3A201968BDE8084005F037BC35
:10032000E801002084610000205F000038B50F4D17
:10033000AB68044683B10E48FFF794FF0D48FFF702
:1003400091FFA86804F010FEEB682BB10A48FFF794
:1003500089FFE86804F008FE3CB10548FFF782FF1A
:100360002046BDE8384004F0FFBD38BDE80100205C
:10037000816100003161000026610000CA0670B58D
:1003800005460C4634D591292ED1254B1C682720D3
:10039000214605F0FCFBA5F120035E2B214608D881
:1003A000284605F0F4FB21462720BDE8704005F003
:1003B000EEBB0D2D4FF05C0004D105F0E8FB2146AB
:1003C0007220EEE70A2D04D105F0E1FB21466E20F4
:1003D000E7E705F0DCFB2146782005F0D8FB022199
:1003E0002846FFF723FFDEE7BDE87040FFF70EBFAA
:1003F0008B0603D5BDE87040FFF7E6BE084B1E68CC
:100400003020314605F0C3FB3146782005F0BFFBB4
:1004100004F00F0128464900BDE87040FFF706BF11
:10042000205F000010B50F4C636A63B1E3690133CC
:10043000E3610023C4E908330B4BBDE810401968A1
:100440000A2005F0A4BB236A3BB920682169FFF7A5
:1004500037FF0648FFF706FFEBE7A3690133A36107
:10046000E7E700BFE8010020205F0000896100008D
:100470002DE9F041144C9DF81880064617461846A1
:10048000D4E9083213430D4604D0012104F12800B9
:10049000FFF73CFE8E4215D0FFF732FF0B48FFF707
:1004A000E1FE41463046FFF769FF0948FFF7DAFEF3
:1004B00041462846FFF762FF3846FFF737FF012124
:1004C0002162E3E7BDE8F081E801002076610000E9
:1004D0007061000007B501900E4843694160013327
:1004E00043610023C0E9023302612830FFF708FEB0
:1004F00018B9FFF747FE019B98470748FFF700FE32
:1005000020B1FFF78FFF03B05DF804FB04F02BFD73
:10051000F7E700BFE801002010020020064B002290
:10052000C3E90422C3E90622C3E90822C3E902227F
:1005300018605A60704700BFE801002038B5184BBA
:10054000184C1D680A20294605F021FB1648FFF7C4
:1005500089FE29460A2005F01AFB6069FFF756FE5E
:100560001248FFF77FFEA069FFF750FE1048FFF723
:1005700079FEE069FFF74AFE0E48FFF773FE294651
:100580000A2005F004FBA36943B90B48FFF76AFE94
:1005900029460A2005F0FBFAA06938BD0748F5E7AF
:1005A000205F0000E8010020586100005061000059
:1005B000456100003B6100008E6100008461000025
:1005C000014B1B68184700BF0C000020014B18604E
:1005D000704700BF0C00002030B585B004460D46C2
:1005E00010220021684605F0BEFA02238DF8023081
:1005F0002A46044B01932146684604F04BFA05B0A5
:1006000030BD00BFC105000080B505460E46174647
:10061000984603F0E9FE034605F024FBDFF8189046
:10062000044649F80030424630463946A84754F857
:10063000090000F031FC00BF080000002DE9F04780
:10064000058B04462807904611D4022905F00705BA
:1006500040F0CD80204604F003FD78B10138218BB5
:10066000042811D8DFE800F0C3106D85950001293A
:100670000CBF45F0100545F02005258388F311884F
:10068000BFF36F8FBDE8F08701F0070AAA4500F0BD
:10069000A6800027B9463E46A368002B00F0BD8027
:1006A00041F00801218388F31188BFF36F8FA1689F
:1006B000002900F0BB800D68002900F0B780D1F858
:1006C0000480334652462046C047002D76D02B6822
:1006D00029461D46F0E701F007035A1F012A1BD8DF
:1006E000002221F00701062B276889B2C4E9002205
:1006F00009D13B4603E0628B013262831B68002B09
:10070000F9D141F002012183204604F0A9FC002820
:100710007BD041F0200177E0042B0AD121F00701C2
:1007200089B22183204604F09BFC10B141F02001E6
:100730002183218B01F0070AAA4550D00027B94632
:10074000AAE7236921F0070141F00601062DD3F83D
:10075000009021832DD1B9F1000F40D041F0080164
:10076000218388F31188BFF36F8F3A492046C84729
:1007700029E021F00701236941F0040189B2042D29
:10078000D3F804902183E6D000273E464FF0040AB8
:1007900082E721F00701236941F0050189B2052DA7
:1007A000D3F808902183D6D000273E464FF0050AA3
:1007B00072E700273E464FF0060A6DE72B4687E7B3
:1007C000B9F1000FD1D14FF02003EFF3118883F37B
:1007D0001288BFF36F8F238B23F008032383258BAD
:1007E000EA062ED525F01003238305F00705666978
:1007F000218B002EBFF66FAF00232768C4E90033BA
:1008000021F0070141F001012183218B01F0070A4A
:10081000AA454FF000097FF43FAF002F9BD041F075
:100820000801218388F31188BFF36F8F002FC7D091
:100830003D68394633465246204604F03DFC2F467B
:10084000F4E7AB067FF51AAF25F02003238305F00C
:100850000705FFE6E550000008B504464FF020020A
:10086000EFF3118382F31288BFF36F8F01F056FE0E
:10087000204600F0BBFA034804F07CFB00F034FC97
:10088000FCE700BF91610000014B0360002070474E
:10089000C85E0000014803F055BF00BFC85E0000FD
:1008A00038B5044618B90F4B0F485B689847616824
:1008B000B1F5683F10D0B1F5680F0DD00B4DA942CE
:1008C0000AD011F46861206807D00146084804F096
:1008D000FDFF00232360656038BD142205F043F955
:1008E000F9E700BF14010020BA6100002C5F5CA989
:1008F000F008002008B520B34368B3F5683F10D175
:1009000001220368BFF35B8F53E8001F002903D166
:1009100043E800200028F7D1BFF35B8F0DD1002002
:1009200008BD094A93420AD000684FF0FF324FF0E9
:10093000FF3303F099F90028F1D00448F0E70448A8
:10094000EEE76FF4E040EBE72C5F5CA9E98FFFFF77
:10095000EA8FFFFF08B5D8B14368B3F5683F10D1FF
:1009600000220368BFF35B8F53E8001F012903D106
:1009700043E800200028F7D1BFF35B8F0BD10020A4
:1009800008BD074A934208D0006803F031F9F6E742
:100990006FF4E040F4E70348F2E70348F0E700BFF4
:1009A0002C5F5CA9E98FFFFFEA8FFFFF10B50446BB
:1009B00018B91D4B1D485B6898476368B3F5683FDD
:1009C0002FD0B3F5680F2CD0194A934219D1236860
:1009D00003BB18484FF0FF324FF0FF33214603F0BE
:1009E0004DF808B923681BB90F4B13485B6898474B
:1009F00020681422002105F0B6F84FF468636360A4
:100A000008E0B3F5683F0DD83A2B03D040F6BA6240
:100A10009342DED1206804F099FF636843F03A0303
:100A2000636010BD054AF3E714010020BA610000BD
:100A30002C5F5CA9F0080020E06100003A00003A59
:100A400008B5064906484023142204F031FFBDE8EA
:100A500008400449044803F0E7BE00BFF00300204B
:100A6000F0080020D05E0000E45E000030BFFFF719
:100A7000FDBF00BF114B124A2DE9F041D518DFF838
:100A80004480013DB5FBF3F55D430F4B08EB0304D8
:100A9000013CB4FBF3F403FB04540E1B07460B4963
:100AA000304605F052F8701942460021083E05F024
:100AB0005AF83E6704F10800BDE8F081010000002B
:100AC000000000000400000004000000BC5E000004
:100AD000044B99685869884203D003494FF080520B
:100AE0000A607047A80A002004ED00E070B5264BAC
:100AF00015469A6A12F0100F9A6A14BF1124102436
:100B000012F0080F9A6A18BF1224920706460AD5F7
:100B1000586B9A6A140634D519B19A6A22F0800289
:100B20009A62132401E06FF01500174B9A6A12F0D5
:100B3000010F9A6A18BF142412F0200F9A6A18BF86
:100B40001524D20602D49B6A9B070AD50E4B5B681C
:100B5000190506D5314600F08FFA10B180F30988E7
:100B60000224094B9A6A920642BF5A6A22F4005242
:100B70005A629A6A42F0FF029A6200232B70204662
:100B800070BD6FF01500CCE700ED00E0134B9A6AE2
:100B900012F0007F9A6A14BF1E201D2012F0807F81
:100BA0009A6A18BF1F2012F4002F9A6A18BF2120DA
:100BB00012F4802F9A6A18BF222012F4003F9A6A1A
:100BC00018BF232012F4803F9A6A6FEA02426FEA4C
:100BD00012429A6218BF2420704700BF00ED00E067
:100BE00010B5194B0246986A9C6A10F4805F14BFD6
:100BF0001720162014F4006F9C6A18BF1820A40553
:100C000009D5986B986A000404D51AB19A6A22F43F
:100C100000429A6219200C4B9A6A12F4806F9A6A09
:100C200018BF1A20D2050CD49B6A13F4005F18BFBA
:100C30001C20054A936A43F47F43936200230B70A0
:100C400010BD1B20F5E700BF00ED00E0F0B5484BFC
:100C50005B688BB00446C3F30803002585F3118855
:100C6000BFF36F8F02F07F40B0F17F4F11D102F0E0
:100C70000C0008280DD010074CBF0C46012500229F
:100C8000033B8DF80720032B05D8DFE803F024632E
:100C900067602C46F3E700239DF80720CAB902AE2F
:100CA00004F1200720686168324603C20834BC4260
:100CB0001646F7D1099A002D54D0C2F3080121B984
:100CC0006FEA52226FEA4222099202A9184604F002
:100CD000A5FA0BB0F0BD264BDA6A9107DBD4DA6ACD
:100CE000002AD8DBDA6A5200D5D55A69A16942F4E4
:100CF00080725A61BFF34F8FBFF36F8F5A6931F81B
:100D0000021C22F480725A61BFF34F8FBFF36F8FC2
:100D10004DF6027291420AD09A6AD2B24AB10DF1EE
:100D2000070201212046FFF7E1FE0346B4E72368EE
:100D3000B2E79A6A12F47F4F05D00DF10701012046
:100D4000FFF74EFFF1E79B6AB3F5803FA3D3FFF7B0
:100D50001DFFEAE70DF107020021E3E70DF10701AE
:100D60000020EDE722F4FF7222F00102ACE700BFA1
:100D700000ED00E0024A536943F0100353617047ED
:100D800000ED00E0EFF30880EFF3098101B5724652
:100D9000FFF75CFF01BD00BF002080F31488BFF3A4
:100DA0006F8F00F027FB00200D490860BFF34F8FC5
:100DB0000C4880F3088800F03DF8202080F311886B
:100DC00009484FF40461401880F30988EFF3148058
:100DD0000221084380F31488BFF36F8F00F014F9E9
:100DE00094ED00E0C01E002000110020BFF34F8FE3
:100DF0000549064BCA6802F4E0621343CB60BFF3B7
:100E00004F8F00BFFDE700BF00ED00E00400FA05D2
:100E10000749D1F890200023C2F3072218469342D5
:100E200000DB7047C1F89830C1F8A0000133F6E745
:100E300000ED00E008B572B6002383F31388FFF7D6
:100E4000E7FF144B4FF0FF32C3F88020C3F8842033
:100E5000C3F88820C3F88C20C3F89020C3F89420EE
:100E6000C3F89820C3F89C20C3F88021C3F88421DC
:100E7000C3F88821C3F88C21C3F89021C3F89421CA
:100E8000C3F89821C3F89C2162B6BFF34F8FBFF31C
:100E90006F8F08BD00E100E0084B9B6883420BD1D7
:100EA000EFF3058343B1064B5A6842F080525A6013
:100EB0005A6A22F400425A6204F00CBEA80A0020CA
:100EC00000ED00E0094A93686FF00A01996708494C
:100ED00058674B6843F080534B60002383F31188BD
:100EE000BFF36F8F9368986F704700BFA80A002008
:100EF00000ED00E015498A684FF030001044EFF330
:100F0000098C80E8F01F202080F31288BFF36F8FD8
:100F10000F4F4FF000664A698A603E604FF07004E0
:100F2000141920680B4C2060506F0023536780F326
:100F3000118804B5104600F01DF9BDE8044002F127
:100F4000300090E8F01F8CF309887047A80A002051
:100F500004ED00E00C0900201EF0040F0CBFEFF3BD
:100F60000880EFF30980816911F8021C0229FFD083
:100F700001B504F055F901BD40B2002807DB044A71
:100F80004109012300F01F00834042F821307047DF
:100F900000E100E040B200280CDB4309064900F004
:100FA0001F0020330122824041F82320BFF34F8FDE
:100FB000BFF36F8F704700BF00E100E0054B4209AF
:100FC00000F01F0053F82220012303FA00F0104024
:100FD000704700BF00E100E040B20028A8BF00F168
:100FE000604001F10101B8BF064B4FEA4111ACBFAF
:100FF00000F5614000F00F00C9B2B4BF195480F889
:101000000013704714ED00E00B4A08B50B4B22F0BB
:101010007F029A60BFF34F8FBFF36F8FD3F88820A2
:1010200022F47002C3F8882002F056FC03F0E2F9C3
:1010300000F074F802F0A2FC0000000000ED00E0F7
:1010400042F8203C009B42F81C3C0A49019B42F8B4
:10105000183C029B42F8143C21F001014FF08073D0
:1010600042F8043C42F8081C0023203A026543671A
:10107000704700BF09060000094A0346906870B136
:1010800013F1160F006E05D0A0F140029A4205D868
:10109000834203D2814228BF00207047002070475E
:1010A000A80A002008B514460A4A0B4B9060026F4C
:1010B0001A600D4600F05EF8204685F3098800218D
:1010C00063B681F31188BFF36F8F00220023FFF70F
:1010D0009BFA00BFA80A00200C0900200149102239
:1010E0000A60704710ED00E072B6404080F311884E
:1010F000BFF36F8FBFF34F8F30BF62B6BFF36F8FF9
:10110000704700BF72B6494081F31188BFF34F8F1B
:1011100020BF80F3118862B6704700BF04480023E7
:101120002021C2180133302B82F80013F9D1704707
:1011300000E100E001B5EFF30580A0F110004FEAF7
:10114000C0000449014409C99847BDE8014002496B
:10115000084700003C5D0000D10A0000024B034A32
:101160000348012100F040B80000042000000020E6
:10117000F45E0000026E054B403A1A60044A4021BA
:10118000C3E901121846012100F038B81009002007
:1011900000000B15084AC2F898000B6823F01F03E3
:1011A000034343F01003C2F89C308B6843F0010303
:1011B000C2F8A030704700BF00ED00E0044B0522EC
:1011C000C3F89420BFF34F8FBFF36F8F704700BFFA
:1011D00000ED00E0BFF35F8F024B0022C3F89420C4
:1011E000704700BF00ED00E010B5034C01232278EA
:1011F00004F035F8207010BDB00C002008B5094A85
:101200000023127804F02BF810F1160F03D0064BD0
:101210000022072800DD08BDC3F89800C3F8A0200D
:101220000130F6E7B00C002000ED00E0F0B5454DD0
:101230002C68082C85B000F28280FFF7CBFF0020DD
:101240000C2684420DD1404D404F2C706846FFF76C
:101250001BFB00240646A6420AD1FFF7AFFF002081
:101260001CE0696806FB0011FFF794FF0130E8E716
:10127000009800EB04114FEA041CCB683B40B3F527
:10128000000F4AD00CD8B3F5001F30D0B3F5800F53
:1012900038D0B3F5801F12D06FF0150005B0F0BD47
:1012A000B3F1807F42D0B3F1007FF5D150F80C301C
:1012B00088684A6803F0C3FF40F4802009E050F8D2
:1012C0000C3088684A6803F0BAFF40F0885040F458
:1012D0003020039028780728CDE90123DCD801A924
:1012E000FFF758FF2B7801332B700134B3E750F828
:1012F0000C3088684A6803F0A2FF40F0885040F440
:101300000020E6E750F80C3088684A6803F097FF41
:1013100040F0E06040F40030DBE750F80C308868C3
:101320004A6803F08CFF40F08270D2E750F80C302E
:1013300088684A6803F083FF40F08870C9E74FF07F
:10134000FF30ABE7005F0000B00C00200000F0FFB2
:1013500008B5024B1B689847002008BD1C090020F7
:10136000034B044A1860937843F00203937070476C
:101370001C0900203000002008B50649064821F06D
:101380000701C1F1005202F5802203F02CFE00207B
:1013900008BD00BF071F0020200900200E4A0123BE
:1013A000C2F840354FF080424FF08051C2F8783596
:1013B000D1F83001082808D1D1F83411052904D812
:1013C0000648415C09B1C2F838364FF0804301222B
:1013D000C3F880250020704700E001401C62000037
:1013E00020B1034B800143F001031847704700BF51
:1013F000C05E000001F0C4B8084B70B5C31A0D46BA
:1014000007499B10044659430648402203F076FFE3
:101410002B4601462046BDE8704018474009002091
:10142000B76DDBB6D85C000073B50C4C0C4A40239A
:10143000041B00930D460B460A49A410614306465F
:10144000094803F088FF011E05DA30462B4602B03A
:10145000BDE87040184702B070BD00BF40090020D1
:10146000C3530000B76DDBB6D85C0000002270B536
:10147000012104461046FFF7AFFD0F4801F00AFABC
:101480000E4B984215D101F015FA26690C493046E9
:1014900003F036FE00280BDB01253564246908497A
:1014A00004F11C0003F02CFE002801DBE5640020A1
:1014B00070BD6FF00400FBE7F91400000000AD0BF5
:1014C000245F000070B501460C2309484B43C41843
:1014D000D4E90E56403300221844A26303F0FBFE09
:1014E0002DB132462B460348BDE87040184770BD09
:1014F00040090020D85C000010B1012804D07047DA
:10150000034B1B6C5B0701D1FFF7DCBF704700BFCB
:101510004009002008B54FF02003EFF3118183F359
:101520001288BFF36F8F124A136843F002001060F5
:10153000DA0708D481F31188BFF36F8F0120BDE86B
:10154000084001F0C9B94FF08043D3F80C24D3F818
:101550000C34DB07EED5074803F0BDFE81F311889C
:10156000BFF36F8F0020BDE80840FFF7ABBF00BF9F
:1015700090090020800900201FB500220123CDE939
:101580000223094ACDF800D06B46CDF804D003F011
:1015900011FF002805DB4FF480420023684602F06B
:1015A00001FC05B05DF804FBE153000010B54FF0FD
:1015B0002003EFF3118483F31288BFF36F8F074A80
:1015C000136823F00201DB07116002D4012004F04C
:1015D00017F884F31188BFF36F8F10BD90090020B6
:1015E0002DE9F0413849BFF35B8F0746012251E8EE
:1015F000003F41E800200028F9D1BFF35B8F33B9E9
:10160000324933484B60CB608A6003F08CFD7B1E0F
:10161000012B2BD8012F07D14FF08043D3F81C3476
:1016200003F00303012B21D004F076F90546F8B945
:10163000284B1B78E3B14FF080430222C3F8082304
:101640000646DFF894804FF08044D4F81824D4F88C
:101650001834D20316D503F00303012B01D0012F58
:1016600010D15DB386F31188BFF36F8FBDE8F081B1
:101670004FF02003EFF3118683F31288BFF36F8FCF
:101680000125DEE7ADB13046FFF73CFDD4F8183553
:10169000002BDAD1D4F80421002AD6D0C4F80431C2
:1016A000D4F804310123C4F81835C8F88031A36098
:1016B000CBE70021212002F07DFEE7E74FF08043D9
:1016C0000222C3F80423D1E73C0900202C090020A2
:1016D0005C090020C310002000E100E008B50748C5
:1016E00004F0C1F838B10648FFF73AFE0448FEF7A7
:1016F0006DFF002008BD6FF01200FBE7145D0000D5
:10170000051700000A2838B5074D044604D1AB6818
:101710000D215B6828469847AB6803485B68E1B2D7
:101720009847204638BD00BF145D0000F0B5406802
:10173000057B01F01F0444EA4514056987B0002DBC
:1017400064D0B2F5001F00F1100506D121462846ED
:1017500003F0D6FF002007B0F0BD01AE0027B2F5C0
:10176000800F0197776039D1B3F1007F14BF052353
:1017700004238DF804300023CDE9046303938368C8
:1017800023FA01F111F001011AD1B2F1A07F17D1B2
:1017900004F01F03620903F5E0732AD0012A3BD14C
:1017A0001F4A52F82330DB070AD40DF103063246F4
:1017B0002146284601F06EFB1A4B98421CD0029637
:1017C00003AA2146284601F027FA174B984220D158
:1017D00001222146284601F0C5FBBBE7B3F1C06FEB
:1017E00005D0B3F1007F14BF01230223C1E7032317
:1017F000BFE74FF0A042D4E73146284601F0ACFBEA
:10180000094B9842DBD06FF00B00A4E76FF0850026
:10181000A1E76FF015009EE751F82330FFDE00BF0F
:10182000000300500400AD0B0000AD0B38B5456857
:101830002B69B3B11035284601F07EFB044680B910
:101840000146284601F040FB084B98420BD108495D
:101850002246284601F018FB224605210620FFF704
:10186000BBFB002038BD6FF00400FBE70000AD0BB0
:1018700075180000420970B5034602D0012A17D03E
:1018800070BD0D4E326951680029F9D003F01F0375
:1018900001250C689D400029F2D08A682A4002D0B8
:1018A0004B68304698472CB1236821461C46F2E726
:1018B000024EE7E72346F8E7005D0000EC5C00001D
:1018C0002DE9F043466840F20635D006337B87B0F9
:1018D00002EA050554BFC2F34010032001F01F07C0
:1018E000B5F5837F144647EA43178DF8030044D0CB
:1018F0000FD8062D18D007D8B5B1022D3FD06FF004
:10190000150007B0BDE8F083B5F5807FF7D101255C
:101910000AE040F20222954233D0B5F5407F32D042
:10192000B5F5007FEBD1022522032ED57268012385
:101930008B40C2F80835326992BB07F01F037F095C
:101940002BD0012F79D13F4A02EB830284F48033FC
:10195000D2F80017C3F30043C4F3404444EA4304FD
:1019600021F4E16144EA800421F0070144EA0523FF
:101970000B43C2F800370020C3E70725D4E704254E
:10198000D2E70525D0E70325CEE7630341BF012356
:1019900072688B40C2F80C35CDE74FF0A042D3E718
:1019A00010360DF102023946304601F073FA14F494
:1019B000403F80460CD13946304603F09FFE224B13
:1019C0009845D8D19DF80210304601F0BFFAD2E711
:1019D00001AB4FF0000903AA39463046CDE904397E
:1019E000CDE90199CDF80C9001F016F9164B98420B
:1019F00085D114F4003315D09DF803308DF80E30E6
:101A000084F48034C4F300444B4603AA394630467C
:101A10008DF80C508DF80D4001F0B8F90A4B984242
:101A2000CDD06CE7CDE9043303AA0DF103033946A9
:101A30003046039301F0F0F8F0E703F5E07352F855
:101A40002330FFDE000300500000AD0B08B54368F3
:101A50001B68D3F80805D3F80C1501F045FE034BBD
:101A6000984214BF6FF00F00002008BD0000AD0BBE
:101A700037B50446002201210320FFF7ADFA636861
:101A80009D6901AA0021284603F01BFD002814DBF4
:101A9000019B2A681979186800F0C0F800280CDB4F
:101AA00060682369064A00F1080101F0C3FC054B98
:101AB000984214BF6FF00F00002003B030BD00BF8C
:101AC000C91A00000000AD0B0378012B08D0022BCF
:101AD00008D04BB9054B0B6201F1100002F03EB982
:101AE000034BF8E7034BF6E7034BF4E70000AD0BBD
:101AF0000100AE0B0200AE0B0100AD0B2DE9F04F63
:101B00008BB005460C4691460193476806694FF035
:101B1000FF324FF0FF33304602F044F906F1100A6D
:101B200000220023504602F03DF9384601F0C6FC81
:101B3000DFF8C0B04FF00008C14501D800242EE006
:101B4000237A039313F008014DD112220DF11600F0
:101B5000029104F008F8039B60680199069003F075
:101B6000010220688DF8151013F0020F02998DF80C
:101B7000142008901DD109F1FF33434502D9237D7C
:101B80005B0718D57ABB202205A9384601F0C2FCB4
:101B9000584512D0184B984228D06FF004043846AC
:101BA00001F09CFC304602F0D9F820460BB0BDE8AD
:101BB000F08F0A46E8E74022E6E74FF48042002330
:101BC000504602F0EFF830B1384601F087FC284665
:101BD000FFF73CFFE1E7336A5B4504F10C04DCD11D
:101BE00008F10108A8E76FF08504D8E76FF00F044B
:101BF000D5E700BF0000AD0B0B00AD0B036803F091
:101C00001F025B09026004D0012B034818BF0020AB
:101C100070474FF0A0407047000300502DE9F04F8F
:101C2000DFF89881DFF8989185B01546824600EB81
:101C30008101514503D1002005B0BDE8F08FDAF8ED
:101C40000030D804C3F3432203F07F0400F1AF80D7
:101C50007F2C4FEA134318F8027008BF4FF0FF348F
:101C6000222B00F2A780DFE803F0122228432B3258
:101C700043A5A5A5A54672A5A5A5A5A5A5A5A5A508
:101C800075808386A5A5A5899194979A9D00C5F82E
:101C90000C45601C18D003A80394FFF7AFFF039B0B
:101CA000012606FA03F3C0F80835B3462CE0C5F860
:101CB0001445631C08D00026F7E7C5F80845E8E797
:101CC000621CC5F8084570D10AF1040AB1E7631C2B
:101CD000C5F80C45F8D0012603A80394FFF78EFF42
:101CE000039B4FF0010B0BFA03F3C0F80C350BE02C
:101CF000C5F81045DDE7C5F80845002FD9D1671CA8
:101D0000E2D00026B3460627DAF80030019303F448
:101D10000052002A03A81CBF4FF0000B01260394B9
:101D2000FFF76CFF039A019B00EB8200C3F3C11421
:101D3000D0F800273B0243EA840343EA0B0302EA9C
:101D40000902134343EA4603C0F80037BCE7C5F86D
:101D50000C45D2E7C5F86045661CDAF80030B3D010
:101D6000C3F38033002BB6D095E7C5F86445F3E79D
:101D7000C5F86845F0E7C5F86C45EDE7C5F82445BA
:101D8000621CA1D04FF0000B0126BDE7C5F8284525
:101D90007FE7C5F83045F3E7C5F83445F0E7C5F807
:101DA0003845EDE7C5F83C45EAE7002694E76FF0D3
:101DB000150041E76FF085003EE700BF5A62000062
:101DC000F0F8FCFF2DE9F74306460022012102202E
:101DD000FFF702F90220FFF7CFF8776835693C6812
:101DE0004FF00008C4F800852E60D7F80C9001AAC7
:101DF0004146484603F065FB002839DB019BD9F8D2
:101E0000002019791868FFF709FF002830DB6B7A8A
:101E1000D6F810C0012B03D0032B27D14FF01008A8
:101E2000AB7A032B22D1E97A09B101291ED12A7A92
:101E300012B1022A1AD10E226B687068B3F5164FE0
:101E4000006800F0B28034D8B3F5165F00F0B080BF
:101E50001AD8B3F5966F00F0AD800CD8B3F5967F25
:101E600000F0AB80B3F5167F00F0AA806FF085001C
:101E700003B0BDE8F083B3F5166F00F0A480B3F5AE
:101E8000965FF3D15C4B43E0B3F5E14F00F09E80E9
:101E900008D8B3F5615F00F09B80B3F5964FE5D1AC
:101EA000564B35E047F6122E7345DFD14FF4000351
:101EB0002EE0B3F5613F00F08D8015D8B3F5963F65
:101EC00000F08B800AD84DF6C02E734500F0878055
:101ED000B3F5614FCAD14FF46B0319E0B3F5E13F9D
:101EE000C4D14FF0EB7313E0B3F5612F7AD009D86A
:101EF000DFF80CE1734578D0B3F5E12FB6D14FF0A0
:101F0000E86305E0DFF8FCE07345AFD14FF08053A4
:101F1000C0F82435736841EA08011B680A43C3F816
:101F20006C25D5E901010CF1040383E803007B680B
:101F3000990712D505F1180001F040F9324B98428B
:101F400056D1287E04F10C0204F5907103F04EFB8B
:101F50002B7E0120984000F035FC0823C4F80035A2
:101F60003B7A53B9C4F81031D4F810316B69C4F816
:101F700034350123C4F8383523607B689A075CBF89
:101F80004FF48073C4F804337B68DB0644BF4FF41E
:101F90008003C4F804332B69C4F8443500200123BE
:101FA000C4F84805A360E36062E74FF41D03AFE7A0
:101FB000164BADE74FF49E23AAE74FF4A033A7E7F3
:101FC0004FF41C33A4E74FF41D23A1E7104B9FE708
:101FD000104B9DE74FF06C739AE70F4B98E74FF467
:101FE000650395E74FF0706392E74FF080638FE7EA
:101FF0006FF004003CE700BF00B0130000A04E00EB
:1020000090D0030040420F000000AD0B00502700AD
:1020100000C0750000F03A0000903A01F8B504469F
:1020200007690D4603F078FCB0B92E4B1B789BB1C5
:102030006426606803F073FA00BB012003F0D4FA51
:10204000013EF6D10021212002F0B4F9F0E786F339
:102050001188BFF36F8FF5E74FF02003EFF3118680
:1020600083F31288BFF36F8F6068314603F057FA2D
:1020700090B986F31188BFF36F8FEDE74FF020031F
:10208000EFF3118683F31288BFF36F8F60683146D8
:1020900003F045FA0028DAD03B691D7062683869A0
:1020A0001368C3F844050120C3F848050020C3F8AD
:1020B0002001D3F82051C3F858015268D3F85801D1
:1020C000D20608D5626812680820C2F800054FF4ED
:1020D0008002C3F8042301229A6081F31188BFF3C0
:1020E0006F8FF8BDC310002070B5012383400E4AE6
:1020F000BFF35B8FDC4352E8001F01EA040542E8AE
:102100000056002EF7D1BFF35B8F4FF48032824030
:102110000648C0F80823BFF35F8FBFF36F8F0B42F1
:1021200014BF0120002070BDB00900200010014044
:1021300070B40E49D1E90034D01AC31844F1000438
:1021400022F07F46C1E90034A6F50013B3F5400F35
:1021500009D2074B1B681A0A1B069C19054B42F152
:102160000005C3E9004570BC02F01ABAC0020020A5
:10217000B4090020C802002011B3BFF35B8F012314
:10218000104A834052E800CF4CEA030C42E800C1F9
:102190000029F7D1BFF35B8F0B4A4FF480338340A4
:1021A000C2F80433094BBFF35B8F1B68BFF35B8F2F
:1021B000C340DB0742BF064B4FF40032C3F8002197
:1021C000704700BFB009002000100140AC0900209A
:1021D00000E100E00D4B1868010A0006BFF35F8FB5
:1021E0000B4BD3F80435181841F10001B3F5801FEB
:1021F0000AD2084BD3E90023904271EB030303D2C8
:1022000010F1807041F10001704700BFB409002057
:1022100000100140C80200202DE9F04F85B016469D
:102220001F469DF840A00446FFF75EFF0190FFF7B0
:10223000D1FFB04271EB070354D23E4B301A67EB2B
:102240000101984271F100014FD23B4B03EB0413A3
:10225000D3E902239F4208BF96425ED037494FF42C
:10226000803804F1500508FA04F8AD00C1F848833D
:102270002046ADB203F09CF926F07F4B05F1804576
:1022800004F5A87305F58835DC464FF00309029381
:10229000029A2CF07F4341F82230C1F84483D1F8F0
:1022A0000435274A6FF00200C01A604420F07F40D6
:1022B000904232D9286868B1D1F804350393A3EB72
:1022C0000B0020F07F40B0F5000F26D9204603F028
:1022D0006FF9039BBAF1000F07D109EB030C09F169
:1022E0000109D5E7BAF1000F09D06FF015052046B6
:1022F0000199FFF741FF284605B0BDE8F08F0123A3
:10230000104ABFF35B8FA34052E8000F184342E826
:1023100000010029F8D1BFF35B8F07490E98230114
:1023200001EB0412C8500F9B5360C2E902670025FD
:10233000DDE700BF01008000B00200200010014076
:10234000FDFF7F00AC0900207FB51C4C1C4BC4F87E
:102350000833C4F848331B4B00254FF0FF304FF0D3
:10236000FF31C4F80855C3E902014FF48033C4F8C3
:102370000433154B02264FF400320121C4F80463E4
:102380001120C3F880212A46FEF726FE1120FEF711
:10239000F3FD0E4A0123A360236013600C4B0D4A2A
:1023A0000093CDE9015500232846FFF735FF30465D
:1023B000FFF716F9284604B070BD00BF00100140B9
:1023C00003000F00B002002000E100E0B00900208F
:1023D00031210000FFFF7F002DE9F7432F4CD4F897
:1023E000043399070BD5D4F8043143B12C4A0023A8
:1023F000C4F80431D4F80431136801331360D4F8FD
:102400000433DA032AD5BFF35B8F264B53E8002F42
:1024100022F0010143E800100028F7D1BFF35B8FE1
:10242000D30702D4D4F84031C3B10025C4F84051D9
:10243000D4F84031FFF7CEFE4FF02003EFF31182C6
:1024400083F31288BFF36F8F174BD3E90267B04253
:10245000B94106D282F31188BFF36F8F03B0BDE894
:10246000F0834FF0FF384FF0FF39C3E90289D3E919
:1024700000101D604FF48033C4F84833C4F8405155
:10248000D4F8403182F31188BFF36F8F0029E5D073
:10249000009032463B4628468847DFE7001001405F
:1024A000B4090020AC090020B002002030B5431C64
:1024B000124C85B005D08442A8BF0446012CB8BF99
:1024C0000124FFF787FE0E4B0C4DD3E90013401A91
:1024D000B0F5000F10D22218AA4228BF2A4652187F
:1024E0004FF0000007490091CDE9010043F10003DE
:1024F000FFF792FE05B030BD2A46F0E7FFFF7F00F0
:10250000C00200203121000008B5FFF763FE024B36
:102510001B68C01A08BD00BFC002002010B5084CDF
:10252000012363601120FEF735FD064BC4F8083324
:10253000C4F84833044B4FF40032C3F8802110BD77
:102540000010014003000F0000E100E04FF0805355
:10255000D3F83021082A06D1D3F83431052B02D81C
:10256000024AD05C70470020704700BF76620000CE
:10257000024AD2F80034002BFBD0704700E0014043
:1025800010B54FF08053D3F83021082A4ED14FF0C8
:1025900080420021C2F80C11C2F81011C2F838159F
:1025A00002F54042D3F80414C2F82015D3F80814F9
:1025B000C2F82415D3F80C14C2F82815D3F8101457
:1025C000C2F82C15D3F81414C2F83015D3F8181427
:1025D000C2F83415D3F81C14C2F84015D3F82014EF
:1025E000C2F84415D3F82414C2F84815D3F82814B7
:1025F000C2F84C15D3F82C14C2F85015D3F8301487
:10260000C2F85415D3F83414C2F86015D3F838144E
:10261000C2F86415D3F83C14C2F86815D3F8401416
:10262000C2F86C15D3F84434C2F87035FFF78EFF4A
:1026300018B13A4B3A4AC3F88C26FFF787FF18B116
:10264000384BFB22C3F81825FFF780FF70B14FF01D
:1026500080414FF08053D1F8E42ED3F8583222F065
:102660000F0203F00F031343C1F8E43EFFF76EFFC0
:1026700020B12D4B4FF40072C3F840264FF0805329
:10268000D3F83031082B1AD14FF08043D3F800240F
:10269000D20744BF6FF00102C3F800244FF080530B
:1026A000D3F83431052B02D8204AD35C3BB14FF02C
:1026B0001023D3F808224FF08043C3F858254FF079
:1026C0001023D3F80022002A03DBD3F80432002BB6
:1026D00022DA174901234FF01020C1F804351224E3
:1026E000FFF746FFC0F80042FFF742FFC0F8044280
:1026F000FFF73EFF0023C1F80435FFF739FFBFF3B2
:102700004F8F0C490C4BCA6802F4E0621343CB6054
:10271000BFF34F8F00BFFDE710BD00BF005000406A
:102720004881030000F00040009002407062000009
:1027300000E0014000ED00E00400FA0530B5046857
:10274000CCB1BFF35B8FB4FA84F3C3F11F03DBB2E8
:1027500001229A4024EA020250E8005FA54204D117
:1027600040E8002CBCF1000FF6D1BFF35B8FE6D13F
:1027700002480B7030BD0248FCE700BF0000AD0B03
:102780000200AD0B10B50368CB40DB0714D4012366
:102790008B400268BFF35B8F43EA020150E8004FB1
:1027A000944204D140E8001CBCF1000FF6D1BFF305
:1027B0005B8FEED1014810BD0148FCE70000AD0B76
:1027C0000400AD0B014BC3F80405704700F0014055
:1027D000F7B5044618B1012823D003B0F0BD4FF07F
:1027E00080430222C3F808230122DA60C3F80401FF
:1027F000D3F80431064601238DF8073042F21075F4
:102800004FF08047D4B1012CE7D1D7F80C3403F452
:102810008033AEBB83B3012002F0E6FE013DF4D16C
:102820002AE04FF080430022C3F808035860C3F841
:102830000021D3F800310DF10706DCE7D7F8183492
:1028400003F480333EB9002BC7D0012002F0CCFE48
:10285000013DF3D1C1E7D7F8182402F0030232603A
:10286000002BBAD09DF80700012803D102F0BCFE6E
:10287000013DC7D1012CB0D1054B00225A71ACE704
:10288000D7F80C2402F001023270002BEAD1F3E7F2
:10289000B8090020044B1A7922B9012218609A80E5
:1028A0000248704702487047B80900200000AD0B8D
:1028B0000C00AD0B08B5074B1B682BB10020FEF7D1
:1028C0007DFB08B9FEF758FB4FF080430022C3F8A8
:1028D000182508BDB809002010B510B1012843D053
:1028E00010BD4FF08043D3F81814D3F81824C80350
:1028F00021D502F00303012B04D013B10020FFF710
:1029000067FF00234FF080420220C2F818350822EA
:102910004FF4827303F180430021196002F1804279
:102920001C6801241460154A12680AB34FF08043F2
:10293000C3F80403D4E7D3F81424D107E1D5D3F8BE
:102940001C249207DAD40D4A12681AB10222C3F885
:102950000423C5E7D3F80421002AFBD00022C3F8E2
:102960000421D3F80431BBE700224FF48073D1E790
:102970001A68002AFCD019601B68B1E7B80900206A
:1029800010B54FF08043D3F800216AB10022C3F89C
:102990000021D3F800210122C3F80823114B5879F4
:1029A00010B95A711B6898474FF08043D3F804213F
:1029B00072B10022C3F80421D3F80421D3F81824FB
:1029C000D3F81824920704D10122C3F818259A607D
:1029D00010BD0222C3F80823024BBDE810401B685B
:1029E00001201847B8090020036803F01F025B09A3
:1029F000026004D0012B034818BF002070474FF03D
:102A0000A040704700030050034A430900F01F0034
:102A1000D35C1844C0B270477C62000070B50546B4
:102A2000FFF7F2FF0C4C08300E4634F81030DA0590
:102A300008D5C3F3432304EBC302284654F83330CC
:102A400052689847A3682BB1E26831462846BDE832
:102A50007040184770BD00BF8400002008B5FFF724
:102A6000D3FF034B083033F81000400B08BD00BF04
:102A70008400002008B5FFF7C7FF034B083033F888
:102A80001000C0F3400008BD8400002008B5FFF727
:102A9000BBFF034B083033F81000C0F3401008BDF3
:102AA00084000020034611F0010010B5CCB20DD116
:102AB000A207C4F3400012D5094AD2F82005586095
:102AC000C2F82005003818BF012008E04FF0A041EF
:102AD000D1F820251A60C1F82025002AE8D010BDC1
:102AE0000003005010B5FFF78FFF124A083032F88C
:102AF0001030D9051CD5C3F3432123F4F85322F831
:102B0000103002F10E04002034F8023F13F4807FED
:102B100003D0C3F3432399420AD001303028F3D1C4
:102B2000002342F831300448BDE81040FFF72ABEC8
:102B300010BD00BF84000020FC000020F0B5054659
:102B400000200446012607468C420BD1114BD3F8D6
:102B50007C2132B10022C3F87C21D3F87C3140F0D3
:102B60000040F0BDE3B29B0003F580729B0806FABB
:102B700003F31D420BD002F1804202F5C042D2F8AD
:102B800000C0BCF1000F02D0176012681843013476
:102B9000DAE700BF00600040F7B506460846FFF7D9
:102BA00033FF194F00F108050C4637F81530DB07E5
:102BB00027D5304602F07EFD2046FFF767FF40B183
:102BC0002046FFF74BFF316800F5A270002341F863
:102BD00020302046FFF786FF002301A827F8153094
:102BE0000194FFF701FF019B00EB8300074BD0F836
:102BF0000027134043F00203C0F80037044803B035
:102C0000F0BD0448FBE700BF84000020F0F8FCFFA3
:102C10000000AD0B0400AD0B2DE9FF4116468046C8
:102C20000846FFF7F1FE0D463168044609B3284611
:102C3000FFF720FF18B12846FFF728FF10BB00233D
:102C4000CDE900338DF80E308DF80F300DF10F0205
:102C50000B4628460DF10E0102F0D4FC474A04F160
:102C6000080132F8113023F0020343F0010322F887
:102C70001130736863B328461F785968FFF7FAFE6E
:102C800010B1D1B13E4826E03C4A04F1080032F8C8
:102C9000103023F02003DB04DB0C22F8103061B18C
:102CA000032FEFD87168496891F800C0D8F8001078
:102CB000A7B90CF5A27C41F82C70304A04F1080148
:102CC00032F8113023F01C0343EA870322F8113055
:102CD000B3684BBB2B4804B0BDE8F08101EB8C011D
:102CE00043EA4C33D1F810E52EF0030EC1F810E59D
:102CF000D8F8001001EB8C0E43F02003DEF810151D
:102D000022F8103021F44F3121F44071CEF8101523
:102D10002902DEF8108501F47C5141EA074141EABD
:102D20000801CEF81015C8E7D3E900672846FFF779
:102D3000D9FE002ECED0114DD5E90023964203D105
:102D40009F4201D1002209E00F480DF10F01FFF76A
:102D5000F5FC0C4B9842BED19DF80F2045F832602F
:102D600005EBC20308345F6035F8143043EA4223B0
:102D700043F4807325F81430ACE700BF84000020D2
:102D80000400AD0B0000AD0BFC0000202DE9F0436A
:102D90000C4685B08046204611461E46FFF734FE9D
:102DA000054629B32046FFF765FE18B92046FFF710
:102DB0006DFE18BB314F05F1080937F8193013F0D3
:102DC0001C0F02D04B78012B18D001238DF80F3047
:102DD0000023CDE900134A1C8B1C20460DF10F0186
:102DE00002F010FC37F8193043F0030327F81930CC
:102DF000002E41D02046FFF73DFE18B9204805B00F
:102E0000BDE8F08396F800C0D8F800301B4F0CF5F1
:102E1000A272002143F8221005F1080237F81210BF
:102E200021F02001C904C90C27F8121075781DB3D0
:102E3000D8F80000B67800EB8C002D04D0F81035DF
:102E400023F4991323F4F853C0F81035230203F444
:102E50007C5305F440353605D0F810E52B4306F4D5
:102E6000801641EA4C31334341F0200143EA0E031E
:102E700027F81210C0F810350248C0E7840000207F
:102E80000400AD0B0000AD0B014BC3E9021270470B
:102E90008400002010B508461446FFF7F7FD50B136
:102EA0000846FFF7B1FD054B083033F810300448F1
:102EB0005B0B237010BD0348FCE700BF84000020BB
:102EC0000000AD0B0400AD0B70B5184E96F88040B5
:102ED00005464CBB2146602206F1100002F043FE7D
:102EE0002D68306F2146884212D10023C5F87C310D
:102EF00045F30730D5F87C31FEF73EF84FF000433C
:102F0000C5F804330A48012386F88030B36770BDE2
:102F1000CBB29B0003F580727C2B08BFAC5001F153
:102F2000010108BFAB58DEE70248F0E7840000204B
:102F30000000AD0B0C00AD0B034B93F88000003884
:102F400018BF0120704700BF840000200148FFF730
:102F500019BC00BFF80000200148FFF7EFBB00BF1D
:102F6000F800002073B5054608460C461646FFF7E4
:102F70008DFD00B30846FFF77DFD0146D8B9204618
:102F8000FFF76CFD04B2A40004F5807203462868C4
:102F90008150296882582144D1F8102542F001025D
:102FA000C1F810252EB12968012202FA03F3C1F8F5
:102FB000043302B070BD2046FFF726FD0F4B0830EA
:102FC00033F81030C3F38203042B12D0052B12D038
:102FD00001A80194FFF708FD019AD0F81035D340FD
:102FE00003F00103991C204602B0BDE8704002F0D6
:102FF00052BB0321F7E70221F5E700BF8400002060
:103000002DE9F04F694BDFF8A881D3F80403D8F815
:103010007010C0B289B040F00040FFF78FFD051E70
:103020002FDAC24600235AF87C1F06A8CDE90633E2
:10303000FFF738FD5F4B01930DF118094FF0000BBE
:10304000019A12F8013B0192DA0803F007031AF81B
:10305000022022FA03F3DA071CD409F10409BBF1B8
:10306000000F14D0D8F870104FF00040FFF766FD45
:10307000D8F87C1006A8FFF715FD0028DAD125F056
:1030800000450124002D79D109B0BDE8F08F4FF043
:10309000010BD5E7484B5B440293D9F80010002997
:1030A000DBD0029B91FAA1F11C78B1FA81F141EADF
:1030B00044142046FFF7A8FC0830059438F8107037
:1030C000C808BB0819F80020039301F00701012389
:1030D00003FA01F122EA010209F8002005A8FFF72E
:1030E00083FC059A039B02F5E072C7F3820650F851
:1030F00022205B073746C2F3014224D520463946D9
:10310000D6B2FFF78BFC05A80594FFF76DFC059B75
:1031100003F5E07350F82330C3F301439E4207D117
:103120000021204602F0B7FA3146204602F0B3FAF9
:1031300005A80594FFF758FC059B012202FA03F34A
:10314000C0F82035A9E7022A0CD10321204602F05D
:10315000A2FA06F00503012BEAD139462046FFF713
:103160005DFCE5E702212046039202F094FA032E6B
:10317000F3D0039A032ADBD1022EEDE795FAA5F3EB
:10318000B3FA83F304FA03F29B0003F1804303F5DF
:10319000C04325EA0205D3F81005D3F81015C0F393
:1031A0000520C1F30141FFF739FC6BE700600040E7
:1031B000840000208C6200008C62000001460148FF
:1031C000FFF7BCBA0801002030B500F01F04400929
:1031D00011D0012812D10C4800EB84001B02D0F85A
:1031E00000570A4C43EA82022C4042EA4101214343
:1031F000C0F8001730BD4FF0A040EDE704F5E074D3
:10320000002353F82430FFDE00030050F0F8FCFFE9
:10321000CB7B10B433B9D1E900420368C3F8084549
:10322000C3F80C2503688A68C3F8242503793C2277
:103230005343054AD3582BB1006810BC40F3073004
:10324000FDF79ABE10BC7047C009002013B53B4B78
:1032500001930023C0F80431D0F80421C0F82431D0
:10326000D0F82421C0F81C31D0F81C21C0F8083156
:10327000D0F80821C0F800324B6381F82F300123C9
:10328000036291F82D209A4218BF83604B6B8A6AC3
:10329000934204460ED24A6AD35CC0F81C350B68D0
:1032A00003B340F286238B608B682548C4F804334F
:1032B00002B010BD91F82C3013B10123C361EEE7C9
:1032C0000B6A13F0400F4FF0010316BFC361436157
:1032D00081F82D30E3E7204602F014FA28B1019B73
:1032E000013B0193019B002BF5DC91F82F305BB97A
:1032F0001348019B002BDBDC0023C4F800350523B9
:103300001048C4F80035D3E7D4F8C434C4F8C43442
:103310008BB10D4A0B4813F0010F18BF104613F084
:10332000020F02F1010218BF104613F0040F074B01
:1033300018BF1846DDE70348DBE700BFA0860100A1
:103340000000AD0B0100AD0B0000AE0B0200AE0B98
:1033500013B5334B01930023C0F80431D0F8042196
:10336000C0F82431D0F82421C0F81C31D0F81C2139
:10337000C0F80831D0F808214B6381F82F308B6AF0
:10338000012B044617D10B6A5B0614D40223C4F840
:1033900000320123236291F82D20022A18BF2360F6
:1033A0000B688BB140F286238B608B681D48C4F894
:1033B000043302B010BD0123E9E7204602F0A2F970
:1033C00028B1019B013B0193019B002BF5DC91F897
:1033D0002F305BB91348019B002BEADC0023C4F8B3
:1033E000003505231048C4F80035E2E7D4F8C434AA
:1033F000C4F8C4348BB10D4A0B4813F0010F18BF49
:10340000104613F0020F02F1010218BF104613F02C
:10341000040F074B18BF1846DDE70348DBE700BF82
:10342000A08601000000AD0B0100AD0B0000AE0B4B
:103430000200AE0B2DE9F84390F804901C4E0746AD
:103440003C2000FB09F035180C4695F82E1061BBA6
:10345000A96032506B6085F82D1085F8311085F821
:103460003010CCB1637B85F8383094F80E8085F845
:103470003980B8F1000F0BD12068062303224146A2
:10348000FFF7A2FE6068062303224146FFF79CFE79
:1034900021463846FFF7BCFE3C2303FB096605487E
:1034A000012386F82E30BDE8F8830348FBE700BF10
:1034B000C00900200000AD0B0C00AD0B03680279C1
:1034C0000521C3F80015044B3C2101FB0233022205
:1034D00083F82E20704700BFC009002003680B4A04
:1034E0000179C3F80823D3F8002222F00302C3F8BD
:1034F00000220022C3F80025054B3C2000FB0133CD
:10350000012183F82E1083F8302070478642040092
:10351000C00900202DE9F047314F0479D0F8009020
:103520003C2303FB04730D4693F82D30012B944686
:1035300004D10B78012B06D12A4811E0022B02D1CD
:103540000B78012BF8D13C26274BC9F8083306FB32
:10355000047696F830302BB1B3682448C9F80433A8
:10356000BDE8F0878CF00403C3F3800386F83030A5
:10357000C6F820C0A846B8E80F0006F10C0EAEE869
:103580000F00D8F80030CEF800306B68B362EB68FB
:1035900073626B78C9F888352B78C4EB041A012B59
:1035A00007EB8A0A17D09BB9CCF3401C3C2303FBE2
:1035B00004735146484683F82CC0FFF747FE3C236E
:1035C0005C433A193B59002BCAD182F83030C7E727
:1035D0004FF0010CEAE751464846FFF7B9FEEEE727
:1035E000C00900200500AD0B864204000B00AD0BA6
:1035F000F0B5324C324887B0214602F083F80028FB
:1036000059D194F82F70FFB9227B931E012B1BD840
:10361000606AA369984217D1E36963626369A36230
:10362000236A274884F82D70C3F34013032A84F8D3
:103630002C3004D107B0BDE8F040FFF707BE07B05B
:10364000BDE8F040FFF784BE1E4E0FCE01AD0FC5A2
:1036500033682B6047B31A4AD2F8C434C2F8C43472
:1036600013F0020106D001238DF80030002384F806
:10367000303007E013F0040209D002238DF8003047
:1036800084F83010D4E900316846984713E013F00D
:10369000010305D003238DF8003084F83020F1E7D2
:1036A00004228DF80020E2E7236A8DF800705B07A2
:1036B00084F83070E6D507B0F0BD00BFC009002027
:1036C00000300040CC090020036803F01F025B09B2
:1036D000026004D0012B034818BF002070474FF050
:1036E000A040704700030050F7B5064602F0A2F86C
:1036F000084602F09FF801A80196FFF7E5FF019B3D
:103700002E4D00EB83000C46D0F80037019440F2B8
:103710000D612B400B43C0F8003701A8FFF7D4FF21
:10372000019B00EB83000127D0F800372B400B43AF
:10373000C0F80037042001F057FF092501A80194C3
:10374000FFF7C2FF019AD0F81035D340DB0715D43C
:1037500001A80196FFF7B8FF019B07FA03F3C0F831
:103760000C35042001F040FF304602F063F8013DC3
:10377000042001F039FF15F0FF05DFD101A8019405
:10378000FFF7A2FF019A01239340C0F80C350420F3
:1037900001F02AFF204602F04DF8042001F024FF3A
:1037A00001A80194FFF790FF019AD0F81035044862
:1037B000D34003F00103C01A03B0F0BDF0F8FCFFE2
:1037C0000100AD0B08B5144BA8220021184602F0E9
:1037D000CAF90322026111494261114A8161C26141
:1037E0004FF480620262002282624262C26201661B
:1037F0000C4941661021816603460267C266426732
:10380000BFF35F8F084911F8010D98540132102A57
:10381000F9D1BFF35F8F08BDFC0900208E62000064
:10382000C30C0020B30C0020A762000038B54FF095
:103830002003EFF3118583F31288BFF36F8F064BDC
:103840009C6801F0C1FE85F31188BFF36F8F20469D
:10385000BDE83840FDF720BBA80A0020104B70B52A
:1038600053F82040013053F82060A64200D870BDC4
:10387000D4E9003595B153B12846984738B10028AE
:10388000B8BF4042EB68FF28A8BFFF201870EA6865
:10389000537843F0010353700834E6E79847FBE799
:1038A0004060000008B50A4B012203201A70FFF7A0
:1038B000D5FF00F0F9FE0420FFF7D0FF00F04CF92F
:1038C000FCF766FC034A137B23F00103137308BD66
:1038D000C31000205003002008B50348034A00210C
:1038E000121A01F0CBFF08BDE8010020C81000202B
:1038F00070B5002386B00122CDE90423194E1A4D7C
:1039000001930F22CDE902321849142303FB00551D
:1039100006EBC01604464FF4C070154B00954FF4EB
:10392000A07200FB0411304600F0D6F8737B114AF8
:10393000EE6023F0040373734FF4046304FB03335A
:1039400013446B600C4B2C74BFF35B8F53E8001F68
:10395000013143E80012002AF8D1BFF35B8F06B0B3
:1039600070BD00BFD0020020A80A0020401900202E
:103970002559000000110020A40A002080B5002075
:10398000A6B0FFF76BFF2D4B83F308882C4D2D4E0F
:103990006B692D4F43F400736B610024E02385F8BD
:1039A0002230EC772C766C76AC7685F820406B6A0A
:1039B00043F4E0236B6285F82340FDF7DBF9FDF764
:1039C0008DFB4FF0FF33AB62EB62FDF72FFCFDF791
:1039D000C5FB40F20113ADF8243006ABB360CDE96E
:1039E0001E44219401F03EFF0120FFF737FF022023
:1039F000164DFFF733FF00F053FC154B756105932F
:103A0000012314490094CDE903434FF480623B46FF
:103A1000CDE90144284600F05FF86A7B064622F0B3
:103A2000040228466A7301F0D2FF2046FFF760FFC8
:103A30003A4631462846FDF735FB00BF40190020C5
:103A400000ED00E0A80A0020A53800005003002087
:103A5000A8620000C01A002038B5064C064D0020B0
:103A6000AC4200D338BD204601F00CFF0028F9DB42
:103A70001C34F5E77E0100207E01002073B50C4662
:103A80004FF02005EFF3118185F31288BFF36F8F9C
:103A9000C5685DB125602B68C360836901338361AC
:103AA000002081F31188BFF36F8F11E052EA030603
:103AB00003D125606FF00B00F3E7CDE90023024648
:103AC000083000F029FB18B9024B9B685B69236042
:103AD00002B070BDA80A00202DE9F04385B007327E
:103AE000994600F1580322F00706C0E91633109BEF
:103AF000037306F140050423002743730D440F9B15
:103B000083738846C0E9067729468760C7730446F1
:103B1000FCF7B0FF08F140030730C4E9183620F085
:103B200007000E9BA06602930D9B01932D1A0C9B20
:103B300000932A464B4641462046FDF781FA054B45
:103B400067659B6803B1DB6EE366284605B0BDE898
:103B5000F08300BFA80A002070B5224C224D86B029
:103B60002646AE4204F130040AD300F069FB1D4C36
:103B70001E4EAC4220D306B0BDE8704000F074BBCE
:103B800054F80C3C059354F8103C049354F8143C3E
:103B9000039354F8183C029354F81C3C019354F8D6
:103BA000203C009354E90A2354E90C01FFF794FFE9
:103BB00054F8303C5E65D3E7D4E90A23B3F1FF3F04
:103BC00008BFB2F1FF3F05D052EA0301206803D1DC
:103BD00000F018FB3034CCE73146183000F06AFCB6
:103BE000F8E700BFBC5E0000BC5E0000695A000040
:103BF00038B5836804466BB3194A926893422CD156
:103C0000C368012B03D9013BC360002038BD4FF0CE
:103C10002003EFF3118583F31288BFF36F8F0169DF
:103C2000806801F08BFE204601F022FFA06058B1B1
:103C300090F90E2022610022826701F0C8FE094837
:103C4000294600F0CDFAE0E7E06085F31188BFF384
:103C50006F8FDAE76FF01500D8E74FF0FF30D5E748
:103C6000A80A0020C41000202DE9F341044617469D
:103C70001E464FF02003EFF3118883F31288BFF341
:103C80006F8FC368334A7BB180689168884219D0CE
:103C900057EA060318D188F31188BFF36F8F6FF0CE
:103CA0000F0002B0BDE8F081916891F90E1021611A
:103CB0000133E3609368A36088F31188BFF36F8FCB
:103CC0000020EEE72169F2E791F90E1090F90E302D
:103CD0009942A8BF19466FF07E029142B8BF1146C3
:103CE0008B422EDD01F02AFE0546CDE900761A480A
:103CF0002246414600F010FA0028E1D04FF02003A0
:103D0000EFF3118683F31288BFF36F8FA068D0B1F1
:103D1000236821699C420AD04BB193F90E30994235
:103D2000A8BF19466FF07E039942B8BF194601F04B
:103D300005FE40B10848314600F052FA6FF00A0023
:103D4000AFE70025D1E7002DF4D186F31188BFF34A
:103D50006F8FF3E7A80A0020C410002038B504468E
:103D60004FF02003EFF3118583F31288BFF36F8FB9
:103D700001F07EFE48B10022826701F028FE29464C
:103D80000748BDE8384000F02BBAD4E902329A4225
:103D900018BF0133A36085F31188BFF36F8F38BD5F
:103DA000C410002013B54FF02004EFF3118184F309
:103DB0001288BFF36F8F846844B1013C846081F343
:103DC0001188BFF36F8F002002B010BD52EA0304C8
:103DD00006D181F31188BFF36F8F6FF00F00F3E707
:103DE000CDE900230246024800F096F9ECE700BF57
:103DF000C4100020C3897F2B12D80A4B1B6863B103
:103E0000094B90F90E201B689A4209DB437BDB06C5
:103E100006D1064BC31A18BF012303F001007047F7
:103E20000023FAE7D00A0020CC0A0020D0020020AC
:103E3000044BC01A044BC0105843044B01221A54BF
:103E4000704700BFD0030020ABAAAAAAC41000206C
:103E500070B50E4B0E4C1E7C06EB460304EBC30400
:103E60000546204601F057FE0A4B002228469A5587
:103E7000FFF7C0FF48B1084B08491A68013A2046CD
:103E8000D317BDE8704000F015BB70BDA80A002034
:103E9000D0030020C4100020D00A0020313E0000D2
:103EA00038B50D4D2B4653F8184F9C4200D004B93D
:103EB000EC68AB6838B95A7BD20604D1A26912B952
:103EC000DA897F2A05D89C4202D02046FFF7C0FF3E
:103ED00023466B6138BD00BFA80A002070B590F979
:103EE0000D20437B002A014604DA03F07F0343736D
:103EF00001F033FD4B7B154A63F07F0310464B7393
:103F000050F8183FD469834208BF002323B9C1E9A0
:103F100000042160D1610CE091F90E5093F90E601C
:103F2000B5420ED0AE420CDD5868C1E900300160E8
:103F300059609068431A5842BDE870405841FFF7F5
:103F4000AFBF9C42E3D01B68E0E700BFA80A002097
:103F500070B490F90D30427B002B29DBD30627D1BA
:103F600083692BBB134962F07F0242730A4652F801
:103F7000184F944218BF2346CC6923B9C0E90024E6
:103F80002060C8610CE090F90E5093F90E60B542C4
:103F90000AD0AE4208DD5A68C0E9003210605860AD
:103FA00070BC0020FFF77CBFA342E7D01B68E4E7AA
:103FB00070BC7047A80A002008B590F90D20437B1B
:103FC000002A014604DA03F07F03437301F0C5FCC5
:103FD000044B9868431A58425841BDE80840FFF71F
:103FE0005FBF00BFA80A002070B515461C460646F4
:103FF00001F0C5FCB4F1FF3F08BFB5F1FF3F08D0A9
:104000002A46234606F118000249BDE8704000F038
:1040100051BA70BD695A00002DE9F041002A437B76
:104020000E460CBF10210821194204460AD10B4349
:10403000DD0903F09F0211D14273082914D0012039
:10404000FFF72EFF1B4B9B68A3422CD1EFF3058398
:104050004BBB3046BDE8F041FCF734BF03F01F0313
:10406000437301F07AFCE8E7A36813B1204601F03E
:104070007CFC04F1180001F04EFD04F158074FF0EC
:104080000008A56DBD42DAD0002DD8D0284601F039
:104090006CFC05F1180001F03EFDC5F8788028465B
:1040A000FFF756FFEDE786F31188BFF36F8FBDE88A
:1040B000F08100BFA80A002038B54FF02003EFF3CD
:1040C000118583F31288BFF36F8F104B104A9C68E1
:1040D0001068A04206D1FFF7BBFE85F31188BFF33D
:1040E0006F8F38BD00211B7C11600A4AD35C002B06
:1040F000F3D02046FFF77EFE0028EED0637BDB0680
:1041000002D12046FFF7EAFE2046E4E7A80A002095
:10411000C80A0020C410002070B50C480C4D8668F9
:104120002E600C461146DDE904234FF02006EFF324
:10413000118586F31288BFF36F8F8068FFF754FFF5
:104140002046BDE87040FCF7BDBE00BFA80A0020B5
:10415000C80A0020F8B504464FF02003EFF311869B
:1041600083F31288BFF36F8F437BDA0649B219D10C
:104170008569BDB903F07F03437301F0EEFB437B18
:10418000164A817363F07F034373134653F8180F85
:10419000984218BF0546D0695DB9C4E90030046093
:1041A000D46111E0A173002086F31188BFF36F8FF3
:1041B000F8BD95F90E70B9420BD08F4209DD6B68DE
:1041C000C4E900531C606C600120FFF769FE012008
:1041D000EAE7A842E1D02D68DEE700BFA80A002088
:1041E00049B9EFF3058030B9054B5A699B689A428B
:1041F00001D0FCF767BE81F31188BFF36F8F704762
:10420000A80A002010B54FF02002EFF3118482F3CA
:104210001288BFF36F8F427B510704D484F3118857
:10422000BFF36F8F10BD22F004024273FFF790FEC0
:1042300021460248BDE81040FFF7D2BFC51000205C
:104240004FF02003EFF3118183F31288BFF36F8FD8
:10425000044B9A68D37B013BD37381F31188BFF37E
:104260006F8F7047A80A002010B54FF02003EFF3BE
:10427000118483F31288BFF36F8F084B9A68D37B46
:104280000133D3730020FFF70BFE84F31188BFF3D3
:104290006F8FBDE8104001F013BC00BFA80A0020DA
:1042A000024B03F11802C3E906227047A80A002056
:1042B000F8B54FF02003EFF3118583F31288BFF3B5
:1042C0006F8F19498868437B03F07F03437301F0C4
:1042D00044FB8B685A7B084662F07F025A7350F8A1
:1042E000182FCC69824208BF002222B9C3E900041A
:1042F0002360CB610CE093F90E6092F90E70BE4220
:104300000ED0B7420CDD5168C3E900210B60536049
:104310000120FFF7C5FD2846BDE8F840FCF7D2BDF7
:10432000A242E3D01268E0E7A80A002050EA0103A5
:104330002DE9F04105460E4603D1FFF7B9FF0020F5
:104340002CE0831C71F1FF332ADB01F0FAFB2C18FF
:104350004FF02003EFF3118883F31288BFF36F8FC0
:10436000114F124BB8681860FFF726FEB868104965
:104370002A463346183000F09DF8BA68537B43F064
:10438000100353734046FCF79DFD01F0DAFB201A41
:1043900063EB0303012873F10003D0DBBDE8F08178
:1043A0006FF00104241AD3E7A80A0020C80A0020ED
:1043B000695A0000B1F1FF3F08BFB0F1FF3F08B5F7
:1043C00006D1084B986801F012FB4FF0FF3008BD92
:1043D000FFF7ACFF4FF47A7380FB0303C00B40EA96
:1043E0004340F4E7A80A0020014B9868704700BFDB
:1043F000A80A002008B50648064A0749121A01F023
:104400003FFABDE80840054A0549064801F038BAB8
:1044100000000020E4010020EC6200000000000029
:10442000EC62000000000020034B1B680BB9FEF794
:104430006BB80020704700BFD40A002010B50E4BA7
:104440001C689C4204D1FFF7EFFF6FF0004010BDE5
:10445000FFF7EAFF002CF8D0D4E904321B1A62EB14
:10446000E072B3F1004F72F10001EEDA002AACBF46
:1044700018460020EBE700BF0C01002030B570B1FA
:104480000B4B5B6898420AD0036843B1D3E904211F
:10449000D0E90445121941EB0501C3E90421D0E933
:1044A000003213605A600023C0E9003330BD00BF02
:1044B0000C010020B3F1FF3F08BFB2F1FF3FF8B598
:1044C00004461D4616465CD081604FF02003EFF392
:1044D000118783F31288BFF36F8F013275F1FF33B9
:1044E00024DA2D49D1E900206FF001039B1A4FF027
:1044F000FF3262EB00009E1B60EB0500012E70F1A5
:10450000000301DA01260020C4E90460234ED6F836
:1045100000C07568B44508BF4FF0000CBCF1000F37
:104520000DD1C4E900652C6074601CE0FFF77CFFCE
:10453000013645F10005361845EBE070E4E7DCE9AB
:104540000420D4E90431934271EB000E1ADAD21A36
:10455000DCF8043060EB0100CCE90420C4E900C3BE
:104560001C60CCF804403368B34206D09C4204D1AE
:10457000FFF764FF0021FDF799FF87F31188BFF370
:104580006F8FF8BD9B1A61EB0001AC45C4E90431A3
:10459000C7D0DCF800C0C1E7E80300200C01002010
:1045A0002DE9F84F4FF02003EFF3118C83F31288BD
:1045B000BFF36F8FDFF8B0A0DFF8B0902C4FC9F8D1
:1045C0000000DAF800000024504508BF0020002554
:1045D000D7E90021D9F80030E04680B3D0E9046C77
:1045E0004FEAE37EB3427EEB0C0B05DAF61A6CEB76
:1045F0000E04C0E9046422E0B21841EBE671C0E9A0
:104600000445C7E90021FFF739FF88F31188BFF39C
:104610006F8F836898474FF02003EFF3118883F37F
:104620001288BFF36F8FD9F80030DAF800009B1BB7
:104630005045C446C9F80030CAD1D7E900219A18BC
:1046400041EBE3730024C7E90023C9F80040FFF7FA
:10465000F5FE2146FDF72AFF88F31188BFF36F8F1F
:10466000BDE8F84FFFF728BD0C010020D40A002058
:10467000E803002010B54FF02003EFF3118483F31B
:104680001288BFF36F8FFFF7CFFE064A0346D2E9C9
:104690000001181841EBE37184F31188BFF36F8FA9
:1046A00010BD00BFE8030020014800F063BC00BF5C
:1046B000AD62000010B50A4C23681BB101232360D2
:1046C000002010BD00F0EAF80028F7D001380628D5
:1046D00003D8044B53F8200010BD034810BD00BFA1
:1046E000D80A002058600000FE8FFFFFBFF34F8FF5
:1046F0000549064BCA6802F4E0621343CB60BFF37E
:104700004F8F00BFFDE700BF00ED00E00400FA0599
:1047100010B4094B09490A4C4FF0FE32C3F800248B
:104720004968C3F80424C3F80824C3F80C24002300
:10473000C4F8003510BC084700B002501401002036
:1047400000A00250D0E90012014BC3E900127047EB
:104750001401002010B5044650B1636813F0685F7F
:1047600005D0064A934202D000232360626010BD48
:10477000034B04485B689847EFE700BF2C5F5CA9D8
:104780001401002074600000C8B143680D4A9342D0
:1047900013D013F0685F0ED0012350E8002F1946A4
:1047A00040E8001C9CF0000FF7D1012AF5D0BFF3C0
:1047B0005F8F0020704704487047044870476FF4CB
:1047C000E04070472C5F5CA9E98FFFFFEA8FFFFF95
:1047D00080B14368094A93420AD013F0685F05D05C
:1047E000BFF35F8F0023036018467047044870478B
:1047F000044870476FF4E040704700BF2C5F5CA92D
:10480000E98FFFFFEA8FFFFF10B5044620B1044B8C
:1048100063600022226010BD0248FFF779FFF6E7CF
:104820003A00003A9C60000070B5D0E90023174CB4
:10483000174D6360D0E90230C4E902302260486855
:10484000D1F800C0134BC3E900C0D5F81801D1F866
:1048500008C0C3F808C010F0685FD1F80CC009693F
:10486000C3F80CC0196110D00B49C5F8BC11002366
:10487000C5E9453105F58A70C5F8B8319047236818
:1048800005F5DC70BDE87040184770BD30010020B0
:10489000F00A00201C0100202C5F5CA938B500F054
:1048A0002FF820B1032400F063F8204638BD00F053
:1048B00031F898B900F0ACF898B90F4DD5F828390F
:1048C0001B0EF02B08D1D5F8242A0C4B9A420AD0A3
:1048D000072400F017F8E6E70624FAE70424204648
:1048E00038BD0024F5E7012000F092F804460028C6
:1048F000F7D1C5F80C0AD8E700B002500000E0205C
:104900000020704700207047014BC3F8040A70472D
:1049100000B0025010B5114800F048F800B110BDC9
:104920000F4800F043F80028F9D10E4C204600F063
:104930003DF80028F3D10C4B0C481C6000F036F811
:1049400001460028EBD100F02DF8044608B12046BE
:1049500010BD00F03FF82046FAE700BF70010020CC
:104960006C0100206801002060010020640100202B
:1049700008B5084800F024F8074800F021F8074877
:1049800000F01EF8064800F01BF8BDE8084000F0F3
:104990000BB800BF700100206C01002068010020EE
:1049A0006401002000207047704700BF08B5034B2A
:1049B00002681B6810689847002008BD300100207D
:1049C00008B5034B02685B6810689847002008BD73
:1049D0003001002070B5094C094D2069AB6898473B
:1049E00018B1084B08485B689847084AEB6820698B
:1049F00000211160BDE87040184700BF1C01002075
:104A00003001002014010020C0600000EC0A0020EA
:104A1000F8B51A4D1A4E0446B26828699047E8B9AD
:104A2000184F3B684CB1A3B1012B19D0013B3B603F
:104A30002869F36898470020F8BD43B9124A01215C
:104A4000C2F800151149D1F81029002AFBD1013311
:104A50003B60F368286998470020F8BD0C48F8BD12
:104A60000A4AD2F81039002BFBD1074A6FF07E407A
:104A7000C2F80035FFF748FF3B68D7E71C0100206C
:104A800030010020EC0A002000A0025000B00250CB
:104A9000E98FFFFF2DE9F04F8DB0436802938378D3
:104AA00015469A07804640F10D8100240E78002EAD
:104AB00000F00A81252E0BD04B1C03930134029B7E
:104AC0004146304698470028C0F2F6800399EDE74A
:104AD0004E788B1C252E0393F0D00027B946BB4699
:104AE000BBF11F0F38D8A6F12003102B0AD8DFE83E
:104AF00003F02A0909300909092109090928092DA2
:104B000009091F00A6F13003092B33D92A2E37D10A
:104B10001BF0400F55F8043B40F08280002BA7BFEC
:104B20004BF0200B9946C3F100094BF0280B01E034
:104B30004BF0010B039B13F8016B0393002ECFD1B5
:104B400030E04BF0020B4BF0040BF3E74BF0080B9B
:104B5000F0E74BF0100BEDE7BBF17F0F19D8A6F192
:104B60003003092BD2D81BF0400F03D00A2101FBE0
:104B70000737DFE70A2101FB09394BF0200BD9E7A2
:104B80002E2E06D11BF0400F40F09E804BF0400BC4
:104B9000D0E76C2E31D02BD8682E36D06A2E3CD080
:104BA0004C2E3AD0002F46F02003B8BF2BF0400225
:104BB000A3F16501BCBF1FFA82FB0027022901D9BE
:104BC000612B2FD1073525F00705DFF8ACA208359A
:104BD00007271BF0080F66D00AEB070B56465E4509
:104BE00063D1A4EB0A0A06EB0A02A9EB07096FE1FD
:104BF000742E9FD07A2E9DD0D4E71BF0800F18BF63
:104C00004BF4007B4BF0800B94E71BF4807F18BFC4
:104C10004BF4007B4BF4807B8CE74BF4207B89E7E3
:104C20001F4687E7A6F16301122900F2F080DFE852
:104C300011F013004F00EE00EE00EE00EE004F000A
:104C4000EE00EE00EE00EE00EE00FE00E900EE00E9
:104C5000EE001B00EE00AF0055F8043B8DF8183055
:104C600001270DF1180AB4E755F804AB834BBAF1EC
:104C7000000F08BF9A461BF0400F14BF39464FF093
:104C8000FF31504600F077FF0746A2E7029B4146FE
:104C90002020984700280FDB013EB742F6D34C4452
:104CA000A41BB14698E74E46F7E716F8010B029BA6
:104CB00041469847002892DA98F8023043F00403FE
:104CC00088F802304FF0FF3420460DB0BDE8F08F79
:104CD0001BF0800F34D01BF4007F2CD0073525F05B
:104CE0000705AA4669685AF8080B2BF01005002939
:104CF000ADB237DA404261EB410145F480650DF118
:104D0000180B0A235A4600F056FFA0EB0B03019341
:104D10006B0662D5019B25F001019F4289B240F3E9
:104D2000A180002E00F0998015F0100240F09C80C8
:104D3000BB460D4623E0AA465AF8040BC117D4E738
:104D4000AA461BF4807F5AF8041B01D10846F5E7F8
:104D50001BF4007F15BF48B208B241F3C01141F304
:104D6000C031C2E750EA0103C9D11BF0400FC6D0E1
:104D7000002FC4D12BF0110295B2BB46019740F22F
:104D8000064115EA01021CBF0BF1010B00222CE0C9
:104D90002BF010021FFA82FB0A231BF0800C49D073
:104DA0001BF400711DBF073525F00705AA46AA466A
:104DB0001ABF5AF8080B69685AF8040B50EA010543
:104DC00045D12BF016051BF0400FADB242D0002F9D
:104DD00040D12BF0170295B2019715F0100248D080
:104DE000019B002E42D103F1010B29075AD4EB0796
:104DF00006D5D9456FDD0199A9EB0B035F18CB46AA
:104E00005B4649E04BF0100B10237826C5E7782B62
:104E100004D1C6F1780343F01003BEE7029B41467C
:104E2000252098470028FFF647AF023447E60823BD
:104E30000026B2E7AA461BF480715AF8040BBDD0D5
:104E40001BF400711ABFC0B2614680B2B6E72BF006
:104E5000060295B20DF1180B54E725F01105ADB21D
:104E6000BB468CE70D46B8E73B460D4603F1020B07
:104E7000BBE7DDF804B082E7E2620000DB6200001D
:104E8000CDE904324146029B202098470028FFF6D6
:104E900013AF049B059A01339945F1DCA4EB0B0198
:104EA000CC189B460AB3029B414630209847002805
:104EB000FFF602AF8EB901342744019B391B99429A
:104EC00024DC1D465DBB019AA9EB0B092244554623
:104ED0001446914435E0019F92E702344146304642
:104EE000029B98470028E7DAE6E640F206410D42C9
:104EF000E2D015F0020F14BF2B20202015F4806F94
:104F000004F10104414618BF2D20E9E7029B414608
:104F100030209847002804F10104CEDACCE606AB35
:104F2000013D4146585D029B98470028CADAC3E616
:104F3000029B414620209847002804F10104FFF617
:104F4000BBAEA9EB0403002BF2DCBFE5704707B54D
:104F5000142301210093002226230846FBF788FA38
:104F600003B05DF804FB704708B1FBF77BB97047ED
:104F7000002070470FB407B504A951F8040B019144
:104F8000FBF72AFB03B05DF804EB04B0704700EBBD
:104F9000C100408840087047F8B50346FFF7F7FFA7
:104FA000B0FA80F0C0F11F0003EB800CCA00DCF8FF
:104FB0001060171D0C4606328DB256B9012101FA58
:104FC00000F0D9680143D960CCF81040DD539D5200
:104FD000F8BDF1000431585AD85303EBC0009E527B
:104FE000C5805D52F4E7043A2DE9F041CC1D11442F
:104FF00024F0070421F007010E1BF708B7FA87F227
:10500000C2F12405AD004FF000080735C2F12002BF
:10501000ED0804604146A760C4F80C80920004F1DA
:10502000100000F0A0FD6B0043F00103638004EB6F
:10503000C5027B1B5900A4F800805180A21924F8F6
:105040003550A2F80280A35304EBC70329465A88BF
:1050500042F001025A802046BDE8F041FFF79CBFB4
:10506000038B13F0070305D10368002B0CBF00204E
:1050700003207047022B05D1408BB0FA80F0400925
:1050800080007047012B05D10368002B0CBF002066
:10509000052070470020704710B50C4600B111B9CB
:1050A0006FF0150010BD081D00F095F80028F9D12B
:1050B000A368032BF6D9F3E72DE9F0410D46074627
:1050C0001946281D90461E4600F096F8044638B151
:1050D0003346424629463846A446BDE8F04160477B
:1050E000BDE8F08110B44FF02004EFF3118284F397
:1050F0001288BFF36F8F416110BC0121FBF79EBA8C
:1051000038B50C46054658B151B10B6843B14B68F0
:1051100033B11C22002100F026FD2C61002038BD97
:105120006FF01500FBE770B505460E46FFF7B4FFBC
:10513000041E15DB4FF02003EFF3118283F3128876
:10514000BFF36F8F6B8B2C8B4FF6FF718B4204F08C
:10515000070407D182F31188BFF36F8F6FF00A0441
:10516000204670BD022C0CD101336B8382F3118871
:10517000BFF36F8F0023224631462846FFF79CFF7E
:10518000EEE7062C14D8DFE804F004131313041A16
:105190000400002333606B683BB9C5E90066ACB915
:1051A00002212846FBF74AFADAE71E606E60F6E74E
:1051B00082F31188BFF36F8F6FF00404D0E782F39E
:1051C0001188BFF36F8F6FF08504C9E782F31188F0
:1051D000BFF36F8FC4E7034658B1426802F0030281
:1051E000012A03D0032A04D1026812B1002098607A
:1051F00070476FF0150070474268816002F003024B
:10520000032A4FF0000203460CBF006810465A60A4
:105210007047704708B50020FBF71EFBFEF706BB82
:1052200001460068FEF702BB08B5FBF71FFCBDE8AE
:105230000840FBF74DBC00210120FFF7EFBF2028FD
:1052400009D9B0F1004F08D80138B0FA80F0C0F1A8
:105250001F0040007047082070473E2070472DE92E
:10526000FF410E469846144605460027B74220DA0D
:105270006868C8B1B8F1000F07D0431E184216D1B4
:105280001F2814D92A68134211D12B680193FFF704
:10529000D6FFAB6803430393E3B2072B07D820463E
:1052A00001A9FBF777FF013401370C35DEE76FF01A
:1052B0001504204604B0BDE8F08108B5FCF748F8B5
:1052C000002008BD0369C9B20C2201FB0233186C2F
:1052D00000F0070070474FF02003EFF3118283F3D3
:1052E0001288BFF36F8F036803F0C00343F002031B
:1052F000036082F31188BFF36F8F704770B5C9B236
:1053000003694FF02004EFF3118584F31288BFF393
:105310006F8F0C2606FB0134246C14F0C00408D0F7
:10532000A24206D085F31188BFF36F8F4FF0FF3094
:1053300070BD06FB013301221A6485F31188BFF3A7
:105340006F8F436803EBC1035B6898470020EFE76A
:105350008022FFF7D3BFF8B5069F0469C9B24FF0AA
:105360002005EFF3118685F31288BFF36F8F0C25AC
:1053700005FB0144256C05F0070CBCF1010F0CD1B5
:10538000276486F31188BFF36F8FC4E90E23436847
:1053900053F8313098470020F8BD05F0C005AF4202
:1053A00086F31188BFF36F8F0CBF6FF077004FF05B
:1053B000FF30F1E713B580240094FFF7CCFF02B073
:1053C00010BD10B40069CBB21C2403FB0400002103
:1053D00010BC10470020FDF77FBA002000F010B984
:1053E0001046FEF7BBBC43685B68D3F810350B6012
:1053F0000020704743685B6802EA010021EA02016D
:10540000C3F80805C3F80C150020704743685B68B3
:105410000020C3F80815704743685B680020C3F894
:105420000C15704743685A68D2F8043521EA030026
:105430000B40C2F80805C2F80C350020704710B5C3
:1054400003695868F8B1884219D19C6808685860A7
:10545000A14200D19860002008602AB15A680A6011
:105460009A68596002B99960002010E0814206D123
:105470000868206098688142EDD19C60EBE70446A3
:1054800000680028F2D1002AE8D16FF0150010BDA5
:10549000CA074368006905D4C1F34202012A04D057
:1054A000022A0AD06FF0150070471B684FF0CC72CB
:1054B000C3F824254162002070471B684FF0CD627D
:1054C000F6E730B543681360057A446804EBC50419
:1054D000A34202D36FF0010030BD5C798C4201D051
:1054E0000833F0E70020F7E743681B68D3F880042F
:1054F000C3F880047047436802691B68D3F8100141
:1055000050B15269002012780A70C3F81001D3F824
:10551000102101221A6070474FF0FF307047026877
:105520000346D2F8580140B95B689B0706D4D2F80D
:105530002001003818BF01207047012070474268E1
:105540001368D3F80413C90518D5D3F82011A9B1ED
:105550004FF02000EFF3118180F31288BFF36F8FBB
:10556000D3F8200130B10020C3F82001D3F8200186
:105570000120D86081F31188BFF36F8F5268D20683
:1055800015D54FF02001EFF3118281F31288BFF39C
:105590006F8FD3F8581111B10021C3F800154FF4E3
:1055A0008001C3F8081382F31188BFF36F8F70472F
:1055B00000F150039B009BB203F1804303F5883355
:1055C00000221A601B68704708B50020FBF70EFC2C
:1055D000FFF770B808B5FBF75DF9FBF731FABDE8E6
:1055E0000840FFF767B8004700F038B9C00000F185
:1055F000804000F5F830C0F81015C0F81425704749
:10560000FDF7E6B8F7B5019001A8DDE908471646B1
:105610001D46FDF7E9F9019BB6F1000C18BF4FF0EC
:10562000010C00EB83000B1E18BF0123002D43EA81
:105630004C0314BF4FF00C0C4FF0000C002C43EA4D
:105640000C0314BF4FF4E06C4FF0000C002F43EA42
:105650000C03D0F8002714BF4FF4403C4FF0000C6F
:1056600043EA0C0322EA030301B109780EB136784C
:10567000760019430DB12D78AD0031430CB124787B
:10568000240229430FB13F783F040C433C43C0F848
:10569000004703B0F0BD1FB50DF10F0301930023C8
:1056A0008DF80F1000931A461946FFF7ABFF05B0AF
:1056B0005DF804FB38B5054608460C46FDF7E6F9EB
:1056C000B0B10846FDF7D6F990B90846FDF7C6F91E
:1056D0002A6801238340C2F808332A6803B202EB28
:1056E0008303D3F8102522F00302C3F8102538BD38
:1056F00020460021BDE83840FFF7CDBFFDF74CBA8A
:10570000FFF7D8BF30B5D0F804312BB10023C0F873
:105710000431D0F80431012391F82F2022B3002264
:10572000C0F82421D0F82441C0F81C21D0F81C4135
:10573000C0F80821D0F80821002B79D0002281F888
:105740002D2091F82F20002A37D18D6A4C6BA5426D
:105750001FBF0523C0F80025C0F80035134683F0AD
:10576000010381F82F3028E0D0F8244114B1C0F8AB
:1057700024210EE0D0F81C216AB3C0F81C41D0F8F7
:105780001C214A6B01324A63D0F8245145B1C0F85C
:105790002441D0F824210122426181F82F20CBE757
:1057A0008C6AA24204D24C6AA25CC0F81C25C3E7F2
:1057B00091F82C201AB10123C361002030BD0A6A80
:1057C00012F0400F4FF0010203D0C26181F82D208A
:1057D000F3E74261B0E7D0F80841002CACD0C0F844
:1057E0000821D0F80841D0F82441002CBFD14A6BE1
:1057F0008C6AA242A0D24C6AD0F81855A5544A6BC4
:105800008C6A0132651EAA424A6308D10A6A5406AC
:1058100002D40222C0F80022012202628CE7A242D6
:10582000FAD10A6A520687D5022381F82D30C4E7DF
:105830000120C3E707B5019001A8FDF745FF019AD4
:1058400001239340C0F8083503B05DF804FBFDF771
:10585000B9BF08B5FFF7FBFF002008BD08B1FBF793
:10586000BFBD7047704740B1C368587810F0010061
:105870001EBF1878B0FA80F04009704700F073B985
:1058800000F063B982684369134313F003030CD13A
:10589000C3600169994201D800207047C168116056
:1058A0004169C26001330A44F3E76FF015007047A5
:1058B00010B5C0E904320023816083610446FFF71C
:1058C000E1FF0028A8BFC4E9004410BDF8B50446B4
:1058D0000D464FF02003EFF3118683F31288BFF3D8
:1058E0006F8FC7686FB900F0C3F850B18767456123
:1058F00000F06DF8314604F10800BDE8F840FEF70D
:105900006FBCE3682B60A369E560013BA36186F38C
:105910001188BFF36F8FF8BDEFF30580003818BF13
:105920000120704708B54FF02002EFF3118382F396
:105930001288BFF36F8FFBF7D7FBF4E790F90E30B7
:105940008B4201D0FEF706BC0020704703460020C2
:10595000C3E90200C3E900337047D0E900321360A5
:105960005A600023C0E90033704708B5FFF7F5FF20
:10597000437B23F0020343730023836008BD38B5E3
:1059800004460D46FEF718FB637B43F00203637386
:10599000E5B1A5602B689D4209D16B68C4E900534D
:1059A0001C606C6012E06A689342F6D01B68002BA2
:1059B000F3D094F90E2093F90E108A42F3D091425D
:1059C000F1DD5A68C4E9003214605C6038BD10B57E
:1059D0004FF02003EFF3118483F31288BFF36F8F2E
:1059E000FEF7B6FA84F31188BFF36F8F10BD10B5C0
:1059F0000446183000F08FF84FF02003EFF31181C8
:105A000083F31288BFF36F8F627B12F0100204D011
:105A100081F31188BFF36F8F10BD2046BDE81040A1
:105A2000FEF7FABA38B504464FF02003EFF31185BC
:105A300083F31288BFF36F8F437B13F0280F0BD1D2
:105A400083680BB1FFF791FF637B51B903F0FB0350
:105A500063732046FEF77CFA85F31188BFF36F8FDE
:105A600038BD03F0EB03F3E701211838FFF7DABF85
:105A700038B54FF02003EFF3118583F31288BFF39D
:105A80006F8F0468A0420DD034B12046FFF76DFF40
:105A900004F1180000F03FF885F31188BFF36F8F11
:105AA000204638BD0024F7E7034620B9EFF305820E
:105AB0000AB9FBF707BA83F31188BFF36F8F7047FA
:105AC0004FF02003EFF3118083F31288BFF36F8F41
:105AD000FFF7EABF4FF02002EFF3118182F3128843
