:10000000401D0020B1090000B14600009D0900001C
:100010009D0900009D0900009D09000000000000EE
:10002000000000000000000000000000710B000054
:100030009D090000000000000D0B00009D0900005C
:100040004D0D00004D0D00004D0D00004D0D000048
:100050004D0D00004D0D00004D0D00004D0D000038
:100060004D0D00004D0D00004D0D00004D0D000028
:100070004D0D00004D0D00004D0D00004D0D000018
:100080004D0D00004D0D00004D0D00004D0D000008
:100090004D0D00004D0D00004D0D00004D0D0000F8
:1000A0004D0D00004D0D00004D0D00004D0D0000E8
:1000B0004D0D00004D0D00004D0D00004D0D0000D8
:1000C0004D0D00004D0D00004D0D00004D0D0000C8
:1000D0004D0D00004D0D00004D0D00004D0D0000B8
:1000E0004D0D00004D0D00004D0D00004D0D0000A8
:1000F0004D0D00004D0D00004D0D00004D0D000098
:100100002DE9F3472E482E4C04F033FD002852D041
:10011000204604F02EFD064600284CD029484FF416
:10012000B01104F04AF9002845DB27484FF480312C
:1001300004F043F900283EDB0025DFF89080DFF86B
:100140009090AA462769A36801A95B682046984752
:1001500028B93A68019B534013F4006329D0BAF1DF
:10016000000F1DD1002D0CBF41464946194804F02F
:1001700045F923691B6885F00107FFB213F4005F9E
:1001800008BF3D4695B1A368DB684FF40051204697
:10019000984742F26760002103F042FBB2463D46B9
:1001A000002140F6CD4003F03BFBCBE7A3681B6981
:1001B000EBE79A46F4E7002002B0BDE8F08700BF05
:1001C000DC4F0000A0510000985100006C5300006B
:1001D0006F53000073530000014B1B68184700BFAA
:1001E00000000020014B1860704700BF0000002095
:1001F00030B585B004460D4610220021684604F053
:1002000038FE02238DF802302A46044B0193214622
:10021000684603F075FE05B030BD00BFD90100008F
:1002200080B505460E461746984603F013FB034675
:1002300004F08AFEDFF81890044649F80030424680
:1002400030463946A84754F8090000F031FC00BF99
:10025000080000002DE9F047058B0446280790466A
:1002600011D4022905F0070540F0CD80204604F0A6
:100270003BF978B10138218B042811D8DFE800F070
:10028000C3106D85950001290CBF45F0100545F0A0
:100290002005258388F31188BFF36F8FBDE8F087B1
:1002A00001F0070AAA4500F0A6800027B9463E469D
:1002B000A368002B00F0BD8041F00801218388F382
:1002C0001188BFF36F8FA168002900F0BB800D6813
:1002D000002900F0B780D1F804803346524620460A
:1002E000C047002D76D02B6829461D46F0E701F067
:1002F00007035A1F012A1BD8002221F00701062BF1
:10030000276889B2C4E9002209D13B4603E0628B29
:10031000013262831B68002BF9D141F00201218375
:10032000204604F0E1F800287BD041F0200177E07E
:10033000042B0AD121F0070189B22183204604F061
:10034000D3F810B141F020012183218B01F0070A7D
:10035000AA4550D00027B946AAE7236921F0070132
:1003600041F00601062DD3F8009021832DD1B9F17B
:10037000000F40D041F00801218388F31188BFF3BA
:100380006F8F3A492046C84729E021F007012369C9
:1003900041F0040189B2042DD3F804902183E6D002
:1003A00000273E464FF0040A82E721F00701236947
:1003B00041F0050189B2052DD3F808902183D6D0EC
:1003C00000273E464FF0050A72E700273E464FF0F1
:1003D000060A6DE72B4687E7B9F1000FD1D14FF040
:1003E0002003EFF3118883F31288BFF36F8F238B01
:1003F00023F008032383258BEA062ED525F010036E
:10040000238305F007056669218B002EBFF66FAFC9
:1004100000232768C4E9003321F0070141F00101FE
:100420002183218B01F0070AAA454FF000097FF4D0
:100430003FAF002F9BD041F00801218388F3118842
:10044000BFF36F8F002FC7D03D6839463346524601
:10045000204604F075F82F46F4E7AB067FF51AAF97
:1004600025F02003238305F00705FFE66D45000016
:1004700008B504464FF02002EFF3118382F312888F
:10048000BFF36F8F01F07EFD204600F0BBFA0348FA
:1004900003F0B4FF00F034FCFCE700BF865300001B
:1004A000014B036000207047A8510000014803F091
:1004B0007FBB00BFA851000038B5044618B90F4BE8
:1004C0000F485B6898476168B1F5683F10D0B1F597
:1004D000680F0DD00B4DA9420AD011F46861206855
:1004E00007D00146084804F077FB002323606560CD
:1004F00038BD142204F0BDFCF9E700BFE000002085
:10050000AF5300002C5F5CA9D807002008B520B3CA
:100510004368B3F5683F10D101220368BFF35B8FD6
:1005200053E8001F002903D143E800200028F7D139
:10053000BFF35B8F0DD1002008BD094A93420AD05A
:1005400000684FF0FF324FF0FF3302F0C3FD002888
:10055000F1D00448F0E70448EEE76FF4E040EBE741
:100560002C5F5CA9E98FFFFFEA8FFFFF08B5D8B1C8
:100570004368B3F5683F10D100220368BFF35B8F77
:1005800053E8001F012903D143E800200028F7D1D8
:10059000BFF35B8F0BD1002008BD074A934208D000
:1005A000006802F05BFDF6E76FF4E040F4E7034813
:1005B000F2E70348F0E700BF2C5F5CA9E98FFFFF7B
:1005C000EA8FFFFF10B5044618B91D4B1D485B6844
:1005D00098476368B3F5683F2FD0B3F5680F2CD008
:1005E000194A934219D1236803BB18484FF0FF32D0
:1005F0004FF0FF33214602F077FC08B923681BB99E
:100600000F4B13485B68984720681422002104F0C0
:1006100030FC4FF46863636008E0B3F5683F0DD8C1
:100620003A2B03D040F6BA629342DED1206804F040
:1006300013FB636843F03A03636010BD054AF3E7B8
:10064000E0000020AF5300002C5F5CA9D807002019
:10065000D55300003A00003A08B506490648402341
:10066000142204F0ABFABDE808400449044803F042
:1006700011BB00BFD8020020D8070020B0510000F5
:10068000C451000030BFFFF7FDBF00BF114B124A3D
:100690002DE9F041D518DFF84480013DB5FBF3F5B5
:1006A0005D430F4B08EB0304013CB4FBF3F403FB85
:1006B00004540E1B07460B49304604F0CCFB70195E
:1006C00042460021083E04F0D4FB3E6704F10800D6
:1006D000BDE8F081010000000000000004000000FF
:1006E0000400000084510000044B99685869884256
:1006F00003D003494FF080520A607047540900202C
:1007000004ED00E070B5264B15469A6A12F0100F02
:100710009A6A14BF1124102412F0080F9A6A18BFA5
:100720001224920706460AD5586B9A6A140634D5E5
:1007300019B19A6A22F080029A62132401E06FF0E4
:100740001500174B9A6A12F0010F9A6A18BF142409
:1007500012F0200F9A6A18BF1524D20602D49B6AA1
:100760009B070AD50E4B5B68190506D5314600F08C
:100770008FFA10B180F309880224094B9A6A920615
:1007800042BF5A6A22F400525A629A6A42F0FF0249
:100790009A6200232B70204670BD6FF01500CCE7E5
:1007A00000ED00E0134B9A6A12F0007F9A6A14BFC2
:1007B0001E201D2012F0807F9A6A18BF1F2012F49D
:1007C000002F9A6A18BF212012F4802F9A6A18BF4E
:1007D000222012F4003F9A6A18BF232012F4803FAF
:1007E0009A6A6FEA02426FEA12429A6218BF2420A4
:1007F000704700BF00ED00E010B5194B0246986A43
:100800009C6A10F4805F14BF1720162014F4006F48
:100810009C6A18BF1820A40509D5986B986A000433
:1008200004D51AB19A6A22F400429A6219200C4B3C
:100830009A6A12F4806F9A6A18BF1A20D2050CD4F3
:100840009B6A13F4005F18BF1C20054A936A43F4A7
:100850007F43936200230B7010BD1B20F5E700BFA0
:1008600000ED00E0F0B5484B5B688BB00446C3F385
:100870000803002585F31188BFF36F8F02F07F40D6
:10088000B0F17F4F11D102F00C0008280DD01007F5
:100890004CBF0C4601250022033B8DF80720032B9B
:1008A00005D8DFE803F0246367602C46F3E70023F4
:1008B0009DF80720CAB902AE04F1200720686168DC
:1008C000324603C20834BC421646F7D1099A002DBD
:1008D00054D0C2F3080121B96FEA52226FEA4222D2
:1008E000099202A9184603F0DDFE0BB0F0BD264BBD
:1008F000DA6A9107DBD4DA6A002AD8DBDA6A5200B6
:10090000D5D55A69A16942F480725A61BFF34F8FFD
:10091000BFF36F8F5A6931F8021C22F480725A615A
:10092000BFF34F8FBFF36F8F4DF6027291420AD023
:100930009A6AD2B24AB10DF1070201212046FFF7AF
:10094000E1FE0346B4E72368B2E79A6A12F47F4FE8
:1009500005D00DF107010120FFF74EFFF1E79B6A7B
:10096000B3F5803FA3D3FFF71DFFEAE70DF10702C0
:100970000021E3E70DF107010020EDE722F4FF720B
:1009800022F00102ACE700BF00ED00E0024A53692B
:1009900043F010035361704700ED00E0EFF308806F
:1009A000EFF3098101B57246FFF75CFF01BD00BF9F
:1009B000002080F31488BFF36F8F00F027FB002026
:1009C0000D490860BFF34F8F0C4880F3088800F092
:1009D0003DF8202080F3118809484FF40461401845
:1009E00080F30988EFF314800221084380F3148810
:1009F000BFF36F8F00F014F994ED00E0401D00206C
:100A0000800F0020BFF34F8F0549064BCA6802F4E0
:100A1000E0621343CB60BFF34F8F00BFFDE700BF21
:100A200000ED00E00400FA050749D1F8902000230A
:100A3000C2F307221846934200DB7047C1F8983092
:100A4000C1F8A0000133F6E700ED00E008B572B68A
:100A5000002383F31388FFF7E7FF144B4FF0FF32B7
:100A6000C3F88020C3F88420C3F88820C3F88C2002
:100A7000C3F89020C3F89420C3F89820C3F89C20B2
:100A8000C3F88021C3F88421C3F88821C3F88C21DE
:100A9000C3F89021C3F89421C3F89821C3F89C218E
:100AA00062B6BFF34F8FBFF36F8F08BD00E100E068
:100AB000084B9B6883420BD1EFF3058343B1064B90
:100AC0005A6842F080525A605A6A22F400425A62CE
:100AD00004F086B95409002000ED00E0094A93684B
:100AE0006FF00A019967084958674B6843F08053D3
:100AF0004B60002383F31188BFF36F8F9368986F67
:100B0000704700BF5409002000ED00E015498A68D5
:100B10004FF030001044EFF3098C80E8F01F2020E4
:100B200080F31288BFF36F8F0F4F4FF000664A6952
:100B30008A603E604FF07004141920680B4C2060EE
:100B4000506F0023536780F3118804B5104600F0FE
:100B50001DF9BDE8044002F1300090E8F01F8CF36D
:100B6000098870475409002004ED00E0F4070020D4
:100B70001EF0040F0CBFEFF30880EFF309808169CA
:100B800011F8021C0229FFD001B503F08DFD01BD53
:100B900040B2002807DB044A4109012300F01F008E
:100BA000834042F82130704700E100E040B2002865
:100BB0000CDB4309064900F01F002033012282406C
:100BC00041F82320BFF34F8FBFF36F8F704700BFF3
:100BD00000E100E0054B420900F01F0053F822201D
:100BE000012303FA00F01040704700BF00E100E06D
:100BF00040B20028A8BF00F1604001F10101B8BF78
:100C0000064B4FEA4111ACBF00F5614000F00F0008
:100C1000C9B2B4BF195480F80013704714ED00E056
:100C20000B4A08B50B4B22F07F029A60BFF34F8F3F
:100C3000BFF36F8FD3F8882022F47002C3F88820A6
:100C400002F080F802F00CFE00F074F802F0CCF82C
:100C50000000000000ED00E042F8203C009B42F85C
:100C60001C3C0A49019B42F8183C029B42F8143C88
:100C700021F001014FF0807342F8043C42F8081C57
:100C80000023203A02654367704700BF210200003D
:100C9000094A0346906870B113F1160F006E05D033
:100CA000A0F140029A4205D8834203D2814228BF74
:100CB00000207047002070475409002008B51446F2
:100CC0000A4A0B4B9060026F1A600D4600F05EF806
:100CD000204685F30988002163B681F31188BFF3AC
:100CE0006F8F00220023FFF79BFA00BF54090020FA
:100CF000F4070020014910220A60704710ED00E05F
:100D000072B6404080F31188BFF36F8FBFF34F8FEF
:100D100030BF62B6BFF36F8F704700BF72B64940F5
:100D200081F31188BFF34F8F20BF80F3118862B623
:100D3000704700BF044800232021C2180133302B24
:100D400082F80013F9D1704700E100E001B5EFF33C
:100D50000580A0F110004FEAC0000449014409C910
:100D60009847BDE8014002490847000004500000D0
:100D7000E9060000024B034A0348012100F040B895
:100D80000000042000000020D4510000026E054B3A
:100D9000403A1A60044A4021C3E901121846012171
:100DA00000F038B8F807002000000B15084AC2F818
:100DB00098000B6823F01F03034343F01003C2F8AD
:100DC0009C308B6843F00103C2F8A030704700BF2D
:100DD00000ED00E0044B0522C3F89420BFF34F8FD1
:100DE000BFF36F8F704700BF00ED00E0BFF35F8F70
:100DF000024B0022C3F89420704700BF00ED00E0D2
:100E000010B5034C0123227803F06DFC207010BD57
:100E10005C0B002008B5094A0023127803F063FC3C
:100E200010F1160F03D0064B0022072800DD08BD85
:100E3000C3F89800C3F8A0200130F6E75C0B00204F
:100E400000ED00E0F0B5454D2C68082C85B000F2AF
:100E50008280FFF7CBFF00200C2684420DD1404D4D
:100E6000404F2C706846FFF71BFB00240646A64245
:100E70000AD1FFF7AFFF00201CE0696806FB0011F4
:100E8000FFF794FF0130E8E7009800EB04114FEA08
:100E9000041CCB683B40B3F5000F4AD00CD8B3F527
:100EA000001F30D0B3F5800F38D0B3F5801F12D0BB
:100EB0006FF0150005B0F0BDB3F1807F42D0B3F103
:100EC000007FF5D150F80C3088684A6803F0FBFBCE
:100ED00040F4802009E050F80C3088684A6803F03C
:100EE000F2FB40F0885040F4302003902878072827
:100EF000CDE90123DCD801A9FFF758FF2B78013396
:100F00002B700134B3E750F80C3088684A6803F05E
:100F1000DAFB40F0885040F40020E6E750F80C304F
:100F200088684A6803F0CFFB40F0E06040F400308E
:100F3000DBE750F80C3088684A6803F0C4FB40F0E7
:100F40008270D2E750F80C3088684A6803F0BBFB27
:100F500040F08870C9E74FF0FF30ABE7E051000088
:100F60005C0B00200000F0FF08B5024B1B6898479F
:100F7000002008BD04080020034B044A1860937841
:100F800043F00203937070470408002024000020FF
:100F900008B50649064821F00701C1F1005202F5E3
:100FA000802203F064FA002008BD00BF871D0020E6
:100FB000080800200E4A0123C2F840354FF0804255
:100FC0004FF08051C2F87835D1F83001082808D1A7
:100FD000D1F83411052904D80648415C09B1C2F89A
:100FE00038364FF080430122C3F880250020704737
:100FF00000E001401154000020B1034B800143F098
:1010000001031847704700BF9051000000F0ECBF8B
:10101000084B70B5C31A0D4607499B100446594347
:101020000648402203F0AEFB2B4601462046BDE8B1
:101030007040184728080020B76DDBB6B44F000099
:1010400073B50C4C0C4A4023041B00930D460B4611
:101050000A49A41061430646094803F0C0FB011E7B
:1010600005DA30462B4602B0BDE87040184702B0A2
:1010700070BD00BF280800204B480000B76DDBB6EC
:10108000B44F0000002270B5012104461046FFF75E
:10109000AFFD0F4801F032F90E4B984215D101F027
:1010A0003DF926690C49304603F06EFA00280BDB47
:1010B000012535642469084904F11C0003F064FA31
:1010C000002801DBE564002070BD6FF00400FBE741
:1010D000111100000000AD0B0052000070B5014678
:1010E0000C2309484B43C418D4E90E564033002260
:1010F0001844A26303F033FB2DB132462B4603485C
:10110000BDE87040184770BD28080020B44F0000AB
:1011100010B1012804D07047034B1B6C5B0701D151
:10112000FFF7DCBF704700BF2808002008B54FF06C
:101130002003EFF3118183F31288BFF36F8F124AFC
:10114000136843F002001060DA0708D481F31188B5
:10115000BFF36F8F0120BDE8084001F0F1B84FF0F8
:101160008043D3F80C24D3F80C34DB07EED50748C2
:1011700003F0F5FA81F31188BFF36F8F0020BDE80B
:101180000840FFF7ABBF00BF7808002068080020C8
:101190001FB500220123CDE90223094ACDF800D072
:1011A0006B46CDF804D003F049FB002805DB4FF473
:1011B00080420023684602F02BF805B05DF804FB7E
:1011C0006948000010B54FF02003EFF3118483F35A
:1011D0001288BFF36F8F074A136823F00201DB0701
:1011E000116002D4012003F036FC84F31188BFF3B0
:1011F0006F8F10BD780800202DE9F0413849BFF30A
:101200005B8F0746012251E8003F41E8002000289B
:10121000F9D1BFF35B8F33B9324933484B60CB60B0
:101220008A6003F0C4F97B1E012B2BD8012F07D154
:101230004FF08043D3F81C3403F00303012B21D07B
:1012400003F0F0FC0546F8B9284B1B78E3B14FF0EA
:1012500080430222C3F808230646DFF894804FF04B
:101260008044D4F81824D4F81834D20316D503F0E7
:101270000303012B01D0012F10D15DB386F3118838
:10128000BFF36F8FBDE8F0814FF02003EFF31186BD
:1012900083F31288BFF36F8F0125DEE7ADB13046CF
:1012A000FFF73CFDD4F81835002BDAD1D4F804212F
:1012B000002AD6D0C4F80431D4F804310123C4F88C
:1012C0001835C8F88031A360CBE70021212002F057
:1012D000A7FAE7E74FF080430222C3F80423D1E7DF
:1012E0002408002014080020440800206F0F00206C
:1012F00000E100E008B5074803F03BFC38B10648C0
:10130000FFF73AFE0448FEF76DFF002008BD6FF0BE
:101310001200FBE7F04F00001D1300000A2838B54B
:10132000074D044604D1AB680D215B6828469847F9
:10133000AB6803485B68E1B29847204638BD00BF00
:10134000F04F0000F0B54068057B01F01F0444EA4F
:101350004514056987B0002D64D0B2F5001F00F177
:10136000100506D12146284603F0F5FB002007B002
:10137000F0BD01AE0027B2F5800F0197776039D13B
:10138000B3F1007F14BF052304238DF8043000233C
:10139000CDE904630393836823FA01F111F001019D
:1013A0001AD1B2F1A07F17D104F01F03620903F52F
:1013B000E0732AD0012A3BD11F4A52F82330DB07C1
:1013C0000AD40DF1030632462146284601F096FA6A
:1013D0001A4B98421CD0029603AA2146284601F0D7
:1013E0004FF9174B984220D101222146284601F09F
:1013F000EDFABBE7B3F1C06F05D0B3F1007F14BFC6
:1014000001230223C1E70323BFE74FF0A042D4E743
:101410003146284601F0D4FA094B9842DBD06FF0F0
:101420000B00A4E76FF08500A1E76FF015009EE7C1
:1014300051F82330FFDE00BF000300500400AD0B65
:101440000000AD0B38B545682B69B3B1103528469F
:1014500001F0A6FA044680B90146284601F068FA70
:10146000084B98420BD108492246284601F040FA21
:10147000224605210620FFF7BBFB002038BD6FF098
:101480000400FBE70000AD0B8D140000420970B5AD
:10149000034602D0012A17D070BD0D4E3269516843
:1014A0000029F9D003F01F0301250C689D40002995
:1014B000F2D08A682A4002D04B68304698472CB157
:1014C000236821461C46F2E7024EE7E72346F8E789
:1014D000DC4F0000C84F00002DE9F043466840F2A1
:1014E0000635D006337B87B002EA050554BFC2F348
:1014F0004010032001F01F07B5F5837F144647EA2B
:1015000043178DF8030044D00FD8062D18D007D804
:10151000B5B1022D3FD06FF0150007B0BDE8F083E4
:10152000B5F5807FF7D101250AE040F2022295420D
:1015300033D0B5F5407F32D0B5F5007FEBD1022531
:1015400022032ED5726801238B40C2F80835326918
:1015500092BB07F01F037F092BD0012F79D13F4A9F
:1015600002EB830284F48033D2F80017C3F3004304
:10157000C4F3404444EA430421F4E16144EA8004B2
:1015800021F0070144EA05230B43C2F8003700208D
:10159000C3E70725D4E70425D2E70525D0E70325CF
:1015A000CEE7630341BF012372688B40C2F80C355C
:1015B000CDE74FF0A042D3E710360DF102023946D5
:1015C000304601F09BF914F4403F80460CD1394677
:1015D000304603F0BEFA224B9845D8D19DF8021050
:1015E000304601F0E7F9D2E701AB4FF0000903AA5A
:1015F00039463046CDE90439CDE90199CDF80C9052
:1016000001F03EF8164B984285D114F4003315D002
:101610009DF803308DF80E3084F48034C4F3004418
:101620004B4603AA394630468DF80C508DF80D40D4
:1016300001F0E0F80A4B9842CDD06CE7CDE90433D5
:1016400003AA0DF1030339463046039301F018F85D
:10165000F0E703F5E07352F82330FFDE000300509B
:101660000000AD0B036803F01F025B09026004D0A9
:10167000012B034818BF002070474FF0A04070476F
:10168000000300502DE9F04FDFF89881DFF89891C2
:1016900085B01546824600EB8101514503D10020FB
:1016A00005B0BDE8F08FDAF80030D804C3F3432268
:1016B00003F07F0400F1AF807F2C4FEA134318F84A
:1016C000027008BF4FF0FF34222B00F2A780DFE842
:1016D00003F0122228432B3243A5A5A5A54672A5E7
:1016E000A5A5A5A5A5A5A5A575808386A5A5A5895C
:1016F0009194979A9D00C5F80C45601C18D003A8DA
:101700000394FFF7AFFF039B012606FA03F3C0F82B
:101710000835B3462CE0C5F81445631C08D00026F4
:10172000F7E7C5F80845E8E7621CC5F8084570D139
:101730000AF1040AB1E7631CC5F80C45F8D001268C
:1017400003A80394FFF78EFF039B4FF0010B0BFAE6
:1017500003F3C0F80C350BE0C5F81045DDE7C5F81C
:101760000845002FD9D1671CE2D00026B3460627D2
:10177000DAF80030019303F40052002A03A81CBFDA
:101780004FF0000B01260394FFF76CFF039A019BB7
:1017900000EB8200C3F3C114D0F800273B0243EAF8
:1017A000840343EA0B0302EA0902134343EA4603B4
:1017B000C0F80037BCE7C5F80C45D2E7C5F860456E
:1017C000661CDAF80030B3D0C3F38033002BB6D0F8
:1017D00095E7C5F86445F3E7C5F86845F0E7C5F84F
:1017E0006C45EDE7C5F82445621CA1D04FF0000B15
:1017F0000126BDE7C5F828457FE7C5F83045F3E782
:10180000C5F83445F0E7C5F83845EDE7C5F83C457F
:10181000EAE7002694E76FF0150041E76FF08500D6
:101820003EE700BF42540000F0F8FCFF2DE9F7430B
:101830000646002201210220FFF7DAF90220FFF715
:10184000A7F9776835693C684FF00008C4F800854F
:101850002E60D7F80C9001AA4146484603F05CF888
:10186000002839DB019BD9F8002019791868FFF7A7
:1018700009FF002830DB6B7AD6F810C0012B03D0AB
:10188000032B27D14FF01008AB7A032B22D1E97A32
:1018900009B101291ED12A7A12B1022A1AD10E22C7
:1018A0006B687068B3F5164F006800F0B28034D8EA
:1018B000B3F5165F00F0B0801AD8B3F5966F00F05C
:1018C000AD800CD8B3F5967F00F0AB80B3F5167FF2
:1018D00000F0AA806FF0850003B0BDE8F083B3F597
:1018E000166F00F0A480B3F5965FF3D15C4B43E034
:1018F000B3F5E14F00F09E8008D8B3F5615F00F0CA
:101900009B80B3F5964FE5D1564B35E047F6122E46
:101910007345DFD14FF400032EE0B3F5613F00F0D3
:101920008D8015D8B3F5963F00F08B800AD84DF620
:10193000C02E734500F08780B3F5614FCAD14FF4D4
:101940006B0319E0B3F5E13FC4D14FF0EB7313E043
:10195000B3F5612F7AD009D8DFF80CE1734578D060
:10196000B3F5E12FB6D14FF0E86305E0DFF8FCE016
:101970007345AFD14FF08053C0F82435736841EA06
:1019800008011B680A43C3F86C25D5E901010CF175
:10199000040383E803007B68990712D505F118005A
:1019A00001F040F9324B984256D1287E04F10C02E6
:1019B00004F5907103F045F82B7E0120984000F06B
:1019C00035FC0823C4F800353B7A53B9C4F810310C
:1019D000D4F810316B69C4F834350123C4F83835B4
:1019E00023607B689A075CBF4FF48073C4F80433AC
:1019F0007B68DB0644BF4FF48003C4F804332B69D3
:101A0000C4F8443500200123C4F84805A360E3600E
:101A100062E74FF41D03AFE7164BADE74FF49E238B
:101A2000AAE74FF4A033A7E74FF41C33A4E74FF421
:101A30001D23A1E7104B9FE7104B9DE74FF06C7300
:101A40009AE70F4B98E74FF4650395E74FF0706303
:101A500092E74FF080638FE76FF004003CE700BF30
:101A600000B0130000A04E0090D0030040420F00D1
:101A70000000AD0B0050270000C0750000F03A00D8
:101A800000903A01F8B5044607690D4603F0CAF81C
:101A9000B0B92E4B1B789BB16426606802F06AFFD8
:101AA00000BB012002F0CBFF013EF6D10021212036
:101AB00001F0B6FEF0E786F31188BFF36F8FF5E70C
:101AC0004FF02003EFF3118683F31288BFF36F8F7B
:101AD0006068314602F04EFF90B986F31188BFF37B
:101AE0006F8FEDE74FF02003EFF3118683F3128839
:101AF000BFF36F8F6068314602F03CFF0028DAD0F8
:101B00003B691D70626838691368C3F84405012099
:101B1000C3F848050020C3F82001D3F82051C3F8CA
:101B200058015268D3F85801D20608D56268126885
:101B30000820C2F800054FF48002C3F804230122F4
:101B40009A6081F31188BFF36F8FF8BD6F0F00208B
:101B500070B5012383400E4ABFF35B8FDC4352E82C
:101B6000001F01EA040542E80056002EF7D1BFF33A
:101B70005B8F4FF4803282400648C0F80823BFF3E1
:101B80005F8FBFF36F8F0B4214BF0120002070BD29
:101B9000980800200010014070B40E49D1E90034CB
:101BA000D01AC31844F1000422F07F46C1E9003482
:101BB000A6F50013B3F5400F09D2074B1B681A0AAC
:101BC0001B069C19054B42F10005C3E9004570BC9A
:101BD00001F01CBFA80100209C080020B0010020DB
:101BE00011B3BFF35B8F0123104A834052E800CF4B
:101BF0004CEA030C42E800C10029F7D1BFF35B8F28
:101C00000B4A4FF480338340C2F80433094BBFF3CF
:101C10005B8F1B68BFF35B8FC340DB0742BF064B84
:101C20004FF40032C3F80021704700BF980800202D
:101C3000001001409408002000E100E00D4B1868FE
:101C4000010A0006BFF35F8F0B4BD3F80435181859
:101C500041F10001B3F5801F0AD2084BD3E90023FC
:101C6000904271EB030303D210F1807041F1000147
:101C7000704700BF9C08002000100140B001002008
:101C80002DE9F04F85B016461F469DF840A004464A
:101C9000FFF75EFF0190FFF7D1FFB04271EB070342
:101CA00054D23E4B301A67EB0101984271F10001AA
:101CB0004FD23B4B03EB0413D3E902239F4208BFEF
:101CC00096425ED037494FF4803804F1500508FA47
:101CD00004F8AD00C1F848832046ADB202F093FE8F
:101CE00026F07F4B05F1804504F5A87305F588358E
:101CF000DC464FF003090293029A2CF07F4341F82F
:101D00002230C1F84483D1F80435274A6FF002002D
:101D1000C01A604420F07F40904232D9286868B1F0
:101D2000D1F804350393A3EB0B0020F07F40B0F50E
:101D3000000F26D9204602F066FE039BBAF1000F81
:101D400007D109EB030C09F10109D5E7BAF1000F3E
:101D500009D06FF0150520460199FFF741FF28468D
:101D600005B0BDE8F08F0123104ABFF35B8FA3409D
:101D700052E8000F184342E800010029F8D1BFF3F0
:101D80005B8F07490E98230101EB0412C8500F9B8B
:101D90005360C2E902670025DDE700BF0100800053
:101DA0009801002000100140FDFF7F0094080020F2
:101DB0007FB51C4C1C4BC4F80833C4F848331B4B8C
:101DC00000254FF0FF304FF0FF31C4F80855C3E94C
:101DD00002014FF48033C4F80433154B02264FF44C
:101DE00000320121C4F804631120C3F880212A467F
:101DF000FEF7FEFE1120FEF7CBFE0E4A0123A36084
:101E0000236013600C4B0D4A0093CDE9015500236C
:101E10002846FFF735FF3046FFF7EEF9284604B0B5
:101E200070BD00BF0010014003000F0098010020AA
:101E300000E100E098080020991B0000FFFF7F00F0
:101E40002DE9F7432F4CD4F8043399070BD5D4F878
:101E5000043143B12C4A0023C4F80431D4F80431CE
:101E6000136801331360D4F80433DA032AD5BFF3BF
:101E70005B8F264B53E8002F22F0010143E800104E
:101E80000028F7D1BFF35B8FD30702D4D4F84031D9
:101E9000C3B10025C4F84051D4F84031FFF7CEFE5D
:101EA0004FF02003EFF3118283F31288BFF36F8F9B
:101EB000174BD3E90267B042B94106D282F31188C9
:101EC000BFF36F8F03B0BDE8F0834FF0FF384FF0E2
:101ED000FF39C3E90289D3E900101D604FF4803354
:101EE000C4F84833C4F84051D4F8403182F3118823
:101EF000BFF36F8F0029E5D0009032463B4628465D
:101F00008847DFE7001001409C080020940800206B
:101F10009801002030B5431C124C85B005D0844296
:101F2000A8BF0446012CB8BF0124FFF787FE0E4B63
:101F30000C4DD3E90013401AB0F5000F10D222184F
:101F4000AA4228BF2A4652184FF0000007490091C4
:101F5000CDE9010043F10003FFF792FE05B030BD6B
:101F60002A46F0E7FFFF7F00A8010020991B000030
:101F700008B5FFF763FE024B1B68C01A08BD00BF1F
:101F8000A801002010B5084C012363601120FEF762
:101F90000DFE064BC4F80833C4F84833044B4FF425
:101FA0000032C3F8802110BD0010014003000F0073
:101FB00000E100E04FF08053D3F83021082A06D129
:101FC000D3F83431052B02D8024AD05C7047002088
:101FD000704700BF5E540000024AD2F80034002B64
:101FE000FBD0704700E0014010B54FF08053D3F8AC
:101FF0003021082A4ED14FF080420021C2F80C1146
:10200000C2F81011C2F8381502F54042D3F8041492
:10201000C2F82015D3F80814C2F82415D3F80C140C
:10202000C2F82815D3F81014C2F82C15D3F81414DC
:10203000C2F83015D3F81814C2F83415D3F81C14AC
:10204000C2F84015D3F82014C2F84415D3F824146C
:10205000C2F84815D3F82814C2F84C15D3F82C143C
:10206000C2F85015D3F83014C2F85415D3F834140C
:10207000C2F86015D3F83814C2F86415D3F83C14CC
:10208000C2F86815D3F84014C2F86C15D3F844347C
:10209000C2F87035FFF78EFF18B13A4B3A4AC3F8D1
:1020A0008C26FFF787FF18B1384BFB22C3F81825A1
:1020B000FFF780FF70B14FF080414FF08053D1F8AF
:1020C000E42ED3F8583222F00F0203F00F0313432B
:1020D000C1F8E43EFFF76EFF20B12D4B4FF40072C4
:1020E000C3F840264FF08053D3F83031082B1AD173
:1020F0004FF08043D3F80024D20744BF6FF00102B1
:10210000C3F800244FF08053D3F83431052B02D8A4
:10211000204AD35C3BB14FF01023D3F808224FF094
:102120008043C3F858254FF01023D3F80022002A2B
:1021300003DBD3F80432002B22DA174901234FF0D6
:102140001020C1F804351224FFF746FFC0F8004202
:10215000FFF742FFC0F80442FFF73EFF0023C1F83B
:102160000435FFF739FFBFF34F8F0C490C4BCA689A
:1021700002F4E0621343CB60BFF34F8F00BFFDE773
:1021800010BD00BF005000404881030000F0004037
:10219000009002405854000000E0014000ED00E0D3
:1021A0000400FA0530B50468CCB1BFF35B8FB4FA14
:1021B00084F3C3F11F03DBB201229A4024EA020236
:1021C00050E8005FA54204D140E8002CBCF1000FAC
:1021D000F6D1BFF35B8FE6D102480B7030BD0248E9
:1021E000FCE700BF0000AD0B0200AD0B10B50368AB
:1021F000CB40DB0714D401238B400268BFF35B8F15
:1022000043EA020150E8004F944204D140E8001C28
:10221000BCF1000FF6D1BFF35B8FEED1014810BDCA
:102220000148FCE70000AD0B0400AD0B014BC3F807
:102230000405704700F00140F7B5044618B10128C5
:1022400023D003B0F0BD4FF080430222C3F808232F
:102250000122DA60C3F80401D3F8043106460123F1
:102260008DF8073042F210754FF08047D4B1012C41
:10227000E7D1D7F80C3403F48033AEBB83B301202D
:1022800002F0DDFB013DF4D12AE04FF08043002253
:10229000C3F808035860C3F80021D3F800310DF1EA
:1022A0000706DCE7D7F8183403F480333EB9002B77
:1022B000C7D0012002F0C3FB013DF3D1C1E7D7F83D
:1022C000182402F003023260002BBAD09DF80700F8
:1022D000012803D102F0B3FB013DC7D1012CB0D1DD
:1022E000054B00225A71ACE7D7F80C2402F001022A
:1022F0003270002BEAD1F3E7A0080020044B1A79D2
:1023000022B9012218609A8002487047024870473B
:10231000A00800200000AD0B0C00AD0B08B5074B6A
:102320001B682BB10020FEF755FC08B9FEF730FC06
:102330004FF080430022C3F8182508BDA0080020F4
:1023400010B510B1012843D010BD4FF08043D3F831
:102350001814D3F81824C80321D502F00303012B65
:1023600004D013B10020FFF767FF00234FF0804235
:102370000220C2F8183508224FF4827303F180431B
:102380000021196002F180421C6801241460154A82
:1023900012680AB34FF08043C3F80403D4E7D3F8BC
:1023A0001424D107E1D5D3F81C249207DAD40D4ABE
:1023B00012681AB10222C3F80423C5E7D3F8042136
:1023C000002AFBD00022C3F80421D3F80431BBE774
:1023D00000224FF48073D1E71A68002AFCD01960FC
:1023E0001B68B1E7A008002010B54FF08043D3F878
:1023F00000216AB10022C3F80021D3F80021012294
:10240000C3F80823114B587910B95A711B689847C3
:102410004FF08043D3F8042172B10022C3F80421A5
:10242000D3F80421D3F81824D3F81824920704D140
:102430000122C3F818259A6010BD0222C3F80823B0
:10244000024BBDE810401B6801201847A00800207F
:10245000036803F01F025B09026004D0012B0348EC
:1024600018BF002070474FF0A04070470003005095
:10247000034A430900F01F00D35C1844C0B2704700
:102480006454000070B50546FFF7F2FF0C4C0830AD
:102490000E4634F81030DA0508D5C3F3432304EBB5
:1024A000C302284654F8333052689847A3682BB1CA
:1024B000E26831462846BDE87040184770BD00BF4D
:1024C0005000002008B5FFF7D3FF034B083033F866
:1024D0001000400B08BD00BF5000002008B5FFF7FA
:1024E000C7FF034B083033F81000C0F3400008BDAD
:1024F0005000002008B5FFF7BBFF034B083033F84E
:102500001000C0F3401008BD50000020034611F039
:10251000010010B5CCB20DD1A207C4F3400012D512
:10252000094AD2F820055860C2F82005003818BFC3
:10253000012008E04FF0A041D1F820251A60C1F831
:102540002025002AE8D010BD0003005010B5FFF789
:102550008FFF124A083032F81030D9051CD5C3F36A
:10256000432123F4F85322F8103002F10E04002026
:1025700034F8023F13F4807F03D0C3F3432399421E
:102580000AD001303028F3D1002342F8313004481A
:10259000BDE81040FFF72ABE10BD00BF500000206C
:1025A000C8000020F0B50546002004460126074675
:1025B0008C420BD1114BD3F87C2132B10022C3F8ED
:1025C0007C21D3F87C3140F00040F0BDE3B29B00A9
:1025D00003F580729B0806FA03F31D420BD002F14B
:1025E000804202F5C042D2F800C0BCF1000F02D018
:1025F0001760126818430134DAE700BF006000403A
:10260000F7B506460846FFF733FF194F00F10805F6
:102610000C4637F81530DB0727D5304602F075FA3F
:102620002046FFF767FF40B12046FFF74BFF3168B8
:1026300000F5A270002341F820302046FFF786FF06
:10264000002301A827F815300194FFF701FF019B33
:1026500000EB8300074BD0F80027134043F0020340
:10266000C0F80037044803B0F0BD0448FBE700BFE2
:1026700050000020F0F8FCFF0000AD0B0400AD0B93
:102680002DE9FF41164680460846FFF7F1FE0D464C
:102690003168044609B32846FFF720FF18B12846E1
:1026A000FFF728FF10BB0023CDE900338DF80E3073
:1026B0008DF80F300DF10F020B4628460DF10E017B
:1026C00002F0CBF9474A04F1080132F8113023F047
:1026D000020343F0010322F81130736863B3284604
:1026E0001F785968FFF7FAFE10B1D1B13E4826E0D5
:1026F0003C4A04F1080032F8103023F02003DB04D8
:10270000DB0C22F8103061B1032FEFD871684968F3
:1027100091F800C0D8F80010A7B90CF5A27C41F8D8
:102720002C70304A04F1080132F8113023F01C03F8
:1027300043EA870322F81130B3684BBB2B4804B03F
:10274000BDE8F08101EB8C0143EA4C33D1F810E590
:102750002EF0030EC1F810E5D8F8001001EB8C0E36
:1027600043F02003DEF8101522F8103021F44F3129
:1027700021F44071CEF810152902DEF8108501F41D
:102780007C5141EA074141EA0801CEF81015C8E73B
:10279000D3E900672846FFF7D9FE002ECED0114DB1
:1027A000D5E90023964203D19F4201D1002209E0DE
:1027B0000F480DF10F01FFF7F5FC0C4B9842BED10D
:1027C0009DF80F2045F8326005EBC20308345F60C6
:1027D00035F8143043EA422343F4807325F814306B
:1027E000ACE700BF500000200400AD0B0000AD0BB3
:1027F000C80000202DE9F0430C4685B080462046F5
:1028000011461E46FFF734FE054629B32046FFF762
:1028100065FE18B92046FFF76DFE18BB314F05F174
:10282000080937F8193013F01C0F02D04B78012B30
:1028300018D001238DF80F300023CDE900134A1C76
:102840008B1C20460DF10F0102F007F937F8193003
:1028500043F0030327F81930002E41D02046FFF73C
:102860003DFE18B9204805B0BDE8F08396F800C0D9
:10287000D8F800301B4F0CF5A272002143F822104B
:1028800005F1080237F8121021F02001C904C90C23
:1028900027F8121075781DB3D8F80000B67800EB51
:1028A0008C002D04D0F8103523F4991323F4F85339
:1028B000C0F81035230203F47C5305F44035360587
:1028C000D0F810E52B4306F4801641EA4C3133432F
:1028D00041F0200143EA0E0327F81210C0F810352A
:1028E0000248C0E7500000200400AD0B0000AD0B13
:1028F000014BC3E9021270475000002010B5084692
:102900001446FFF7F7FD50B10846FFF7B1FD054B40
:10291000083033F8103004485B0B237010BD0348B7
:10292000FCE700BF500000200000AD0B0400AD0B21
:1029300070B5184E96F8804005464CBB2146602283
:1029400006F1100002F095FA2D68306F214688429A
:1029500012D10023C5F87C3145F30730D5F87C311E
:10296000FEF716F94FF00043C5F804330A48012377
:1029700086F88030B36770BDCBB29B0003F58072E0
:102980007C2B08BFAC5001F1010108BFAB58DEE75A
:102990000248F0E7500000200000AD0B0C00AD0B2A
:1029A000034B93F88000003818BF0120704700BF28
:1029B000500000200148FFF719BC00BFC4000020F0
:1029C0000148FFF7EFBB00BFC400002073B5054608
:1029D00008460C461646FFF78DFD00B30846FFF784
:1029E0007DFD0146D8B92046FFF76CFD04B2A40076
:1029F00004F5807203462868815029688258214472
:102A0000D1F8102542F00102C1F810252EB1296835
:102A1000012202FA03F3C1F8043302B070BD20466C
:102A2000FFF726FD0F4B083033F81030C3F3820355
:102A3000042B12D0052B12D001A80194FFF708FD3A
:102A4000019AD0F81035D34003F00103991C2046B9
:102A500002B0BDE8704002F049B80321F7E7022157
:102A6000F5E700BF500000202DE9F04F694BDFF87B
:102A7000A881D3F80403D8F87010C0B289B040F030
:102A80000040FFF78FFD051E2FDAC24600235AF8DB
:102A90007C1F06A8CDE90633FFF738FD5F4B019395
:102AA0000DF118094FF0000B019A12F8013B019249
:102AB000DA0803F007031AF8022022FA03F3DA0710
:102AC0001CD409F10409BBF1000F14D0D8F8701020
:102AD0004FF00040FFF766FDD8F87C1006A8FFF71E
:102AE00015FD0028DAD125F000450124002D79D10B
:102AF00009B0BDE8F08F4FF0010BD5E7484B5B44C0
:102B00000293D9F800100029DBD0029B91FAA1F1C1
:102B10001C78B1FA81F141EA44142046FFF7A8FC81
:102B20000830059438F81070C808BB0819F8002060
:102B3000039301F00701012303FA01F122EA0102E4
:102B400009F8002005A8FFF783FC059A039B02F50E
:102B5000E072C7F3820650F822205B073746C2F3C3
:102B6000014224D520463946D6B2FFF78BFC05A892
:102B70000594FFF76DFC059B03F5E07350F82330D7
:102B8000C3F301439E4207D10021204601F0AEFF6E
:102B90003146204601F0AAFF05A80594FFF758FC2E
:102BA000059B012202FA03F3C0F82035A9E7022AA7
:102BB0000CD10321204601F099FF06F00503012BFB
:102BC000EAD139462046FFF75DFCE5E702212046C1
:102BD000039201F08BFF032EF3D0039A032ADBD17B
:102BE000022EEDE795FAA5F3B3FA83F304FA03F2A4
:102BF0009B0003F1804303F5C04325EA0205D3F8A7
:102C00001005D3F81015C0F30520C1F30141FFF7FB
:102C100039FC6BE700600040500000207454000055
:102C20007454000001460148FFF7BCBAD4000020EC
:102C300008B5144BA8220021184602F01AF9032205
:102C4000026111494261114A8161C2614FF480629F
:102C50000262002282624262C26201660C494166DF
:102C60001021816603460267C2664267BFF35F8F29
:102C7000084911F8010D98540132102AF9D1BFF317
:102C80005F8F08BDA8080020765400006F0B00205D
:102C90005F0B00208F54000038B54FF02003EFF396
:102CA000118583F31288BFF36F8F064B9C6801F088
:102CB000B6FE85F31188BFF36F8F2046BDE838401C
:102CC000FDF7F6BE54090020104B70B553F82040B4
:102CD000013053F82060A64200D870BDD4E9003519
:102CE00095B153B12846984738B10028B8BF404243
:102CF000EB68FF28A8BFFF201870EA68537843F0FC
:102D0000010353700834E6E79847FBE7CC52000014
:102D100008B50A4B012203201A70FFF7D5FF00F017
:102D2000F9FE0420FFF7D0FF00F04CF9FDF7E8F9B9
:102D3000034A137B23F00103137308BD6F0F0020B8
:102D40003802002008B50348034A0021121A01F096
:102D50001BFF08BD98010020740F002070B50023F0
:102D600086B00122CDE90423194E1A4D01930F229A
:102D7000CDE902321849142303FB005506EBC016B7
:102D800004464FF4C070154B00954FF4A07200FB41
:102D90000411304600F0D6F8737B114AEE6023F040
:102DA000040373734FF4046304FB033313446B6035
:102DB0000C4B2C74BFF35B8F53E8001F013143E8C9
:102DC0000012002AF8D1BFF35B8F06B070BD00BFC0
:102DD000B801002054090020C0170020314C000029
:102DE000800F00205009002080B50020A6B0FFF71A
:102DF0006BFF2D4B83F308882C4D2D4E6B692D4FA7
:102E000043F400736B610024E02385F82230EC77F3
:102E10002C766C76AC7685F820406B6A43F4E02320
:102E20006B6285F82340FDF7B1FDFDF763FF4FF0BE
:102E3000FF33AB62EB62FEF705F8FDF79BFF40F254
:102E40000113ADF8243006ABB360CDE91E442194E4
:102E500001F08EFE0120FFF737FF0220164DFFF72D
:102E600033FF00F053FC154B7561059301231449A2
:102E70000094CDE903434FF480623B46CDE9014421
:102E8000284600F05FF86A7B064622F004022846D6
:102E90006A7301F022FF2046FFF760FF3A46314691
:102EA0002846FDF70BFF00BFC017002000ED00E033
:102EB00054090020112D0000380200209054000019
:102EC0004019002038B5064C064D0020AC4200D316
:102ED00038BD204601F05CFE0028F9DB1C34F5E724
:102EE000480100204801002073B50C464FF0200532
:102EF000EFF3118185F31288BFF36F8FC5685DB161
:102F000025602B68C360836901338361002081F3EE
:102F10001188BFF36F8F11E052EA030603D12560D9
:102F20006FF00B00F3E7CDE900230246083000F014
:102F300029FB18B9024B9B685B69236002B070BD26
:102F4000540900202DE9F04385B00732994600F17D
:102F5000580322F00706C0E91633109B037306F1ED
:102F600040050423002743730D440F9B8373884659
:102F7000C0E9067729468760C7730446FDF786FBDC
:102F800008F140030730C4E9183620F007000E9B13
:102F9000A06602930D9B01932D1A0C9B00932A4669
:102FA0004B4641462046FDF757FE054B67659B683B
:102FB00003B1DB6EE366284605B0BDE8F08300BFD1
:102FC0005409002070B5224C224D86B02646AE42F0
:102FD00004F130040AD300F069FB1D4C1E4EAC42D4
:102FE00020D306B0BDE8704000F074BB54F80C3C30
:102FF000059354F8103C049354F8143C039354F88C
:10300000183C029354F81C3C019354F8203C009364
:1030100054E90A2354E90C01FFF794FF54F8303CBB
:103020005E65D3E7D4E90A23B3F1FF3F08BFB2F1ED
:10303000FF3F05D052EA0301206803D100F018FBDE
:103040003034CCE73146183000F06AFCF8E700BFB6
:103050008451000084510000754D000038B583682C
:1030600004466BB3194A926893422CD1C368012B72
:1030700003D9013BC360002038BD4FF02003EFF3BC
:10308000118583F31288BFF36F8F0169806801F0A7
:10309000DBFD204601F072FEA06058B190F90E20D1
:1030A00022610022826701F018FE0948294600F0DB
:1030B000CDFAE0E7E06085F31188BFF36F8FDAE7C0
:1030C0006FF01500D8E74FF0FF30D5E75409002026
:1030D000700F00202DE9F341044617461E464FF0BD
:1030E0002003EFF3118883F31288BFF36F8FC36857
:1030F000334A7BB180689168884219D057EA060349
:1031000018D188F31188BFF36F8F6FF00F0002B0F2
:10311000BDE8F081916891F90E1021610133E360FF
:103120009368A36088F31188BFF36F8F0020EEE7E8
:103130002169F2E791F90E1090F90E309942A8BF7B
:1031400019466FF07E029142B8BF11468B422EDDC8
:1031500001F07AFD0546CDE900761A48224641463F
:1031600000F010FA0028E1D04FF02003EFF31186B1
:1031700083F31288BFF36F8FA068D0B123682169F1
:103180009C420AD04BB193F90E309942A8BF194620
:103190006FF07E039942B8BF194601F055FD40B16A
:1031A0000848314600F052FA6FF00A00AFE70025F8
:1031B000D1E7002DF4D186F31188BFF36F8FF3E7C9
:1031C00054090020700F002038B504464FF020034A
:1031D000EFF3118583F31288BFF36F8F01F0CEFDFB
:1031E00048B10022826701F078FD29460748BDE812
:1031F000384000F02BBAD4E902329A4218BF0133AA
:10320000A36085F31188BFF36F8F38BD700F002066
:1032100013B54FF02004EFF3118184F31288BFF34C
:103220006F8F846844B1013C846081F31188BFF3DF
:103230006F8F002002B010BD52EA030406D181F363
:103240001188BFF36F8F6FF00F00F3E7CDE9002314
:103250000246024800F096F9ECE700BF700F00202C
:10326000C3897F2B12D80A4B1B6863B1094B90F9B5
:103270000E201B689A4209DB437BDB0606D1064B16
:10328000C31A18BF012303F0010070470023FAE7B7
:103290007C09002078090020B8010020044BC01AE6
:1032A000044BC0105843044B01221A54704700BF0E
:1032B000B8020020ABAAAAAA700F002070B50E4B6E
:1032C0000E4C1E7C06EB460304EBC3040546204669
:1032D00001F0A7FD0A4B002228469A55FFF7C0FFD0
:1032E00048B1084B08491A68013A2046D317BDE88F
:1032F000704000F015BB70BD54090020B8020020DA
:10330000700F00207C0900209D32000038B50D4D63
:103310002B4653F8184F9C4200D004B9EC68AB68B8
:1033200038B95A7BD20604D1A26912B9DA897F2A48
:1033300005D89C4202D02046FFF7C0FF23466B61B0
:1033400038BD00BF5409002070B590F90D20437BB3
:10335000002A014604DA03F07F03437301F083FC83
:103360004B7B154A63F07F0310464B7350F8183FB0
:10337000D469834208BF002323B9C1E90004216056
:10338000D1610CE091F90E5093F90E60B5420ED068
:10339000AE420CDD5868C1E90030016059609068A8
:1033A000431A5842BDE870405841FFF7AFBF9C42F6
:1033B000E3D01B68E0E700BF5409002070B490F927
:1033C0000D30427B002B29DBD30627D183692BBB31
:1033D000134962F07F0242730A4652F8184F944232
:1033E00018BF2346CC6923B9C0E900242060C86116
:1033F0000CE090F90E5093F90E60B5420AD0AE423F
:1034000008DD5A68C0E900321060586070BC0020C6
:10341000FFF77CBFA342E7D01B68E4E770BC7047AE
:103420005409002008B590F90D20437B002A01467D
:1034300004DA03F07F03437301F015FC044B986832
:10344000431A58425841BDE80840FFF75FBF00BF2C
:103450005409002070B515461C46064601F015FCBF
:10346000B4F1FF3F08BFB5F1FF3F08D02A4623461D
:1034700006F118000249BDE8704000F051BA70BD75
:10348000754D00002DE9F041002A437B0E460CBF2C
:1034900010210821194204460AD10B43DD0903F02B
:1034A0009F0211D14273082914D00120FFF72EFF8B
:1034B0001B4B9B68A3422CD1EFF305834BBB3046DB
:1034C000BDE8F041FDF70ABB03F01F03437301F0B1
:1034D000CAFBE8E7A36813B1204601F0CCFB04F176
:1034E000180001F09EFC04F158074FF00008A56D8C
:1034F000BD42DAD0002DD8D0284601F0BCFB05F142
:10350000180001F08EFCC5F878802846FFF756FFBA
:10351000EDE786F31188BFF36F8FBDE8F08100BF40
:103520005409002038B54FF02003EFF3118583F3E1
:103530001288BFF36F8F104B104A9C681068A0422E
:1035400006D1FFF7BBFE85F31188BFF36F8F38BD3F
:1035500000211B7C11600A4AD35C002BF3D020466B
:10356000FFF77EFE0028EED0637BDB0602D120460B
:10357000FFF7EAFE2046E4E7540900207409002022
:10358000700F002070B50C480C4D86682E600C46FC
:103590001146DDE904234FF02006EFF3118586F391
:1035A0001288BFF36F8F8068FFF754FF2046BDE895
:1035B0007040FDF793BA00BF540900207409002041
:1035C000F8B504464FF02003EFF3118683F3128819
:1035D000BFF36F8F437BDA0649B219D18569BDB954
:1035E00003F07F03437301F03EFB437B164A817374
:1035F00063F07F034373134653F8180F984218BFC4
:103600000546D0695DB9C4E900300460D46111E0B9
:10361000A173002086F31188BFF36F8FF8BD95F971
:103620000E70B9420BD08F4209DD6B68C4E90053BC
:103630001C606C600120FFF769FE0120EAE7A842E8
:10364000E1D02D68DEE700BF5409002049B9EFF34F
:10365000058030B9054B5A699B689A4201D0FDF745
:103660003DBA81F31188BFF36F8F70475409002072
:1036700010B54FF02002EFF3118482F31288BFF3EC
:103680006F8F427B510704D484F31188BFF36F8F8F
:1036900010BD22F004024273FFF790FE214602485B
:1036A000BDE81040FFF7D2BF710F00204FF020039C
:1036B000EFF3118183F31288BFF36F8F044B9A6885
:1036C000D37B013BD37381F31188BFF36F8F7047B6
:1036D0005409002010B54FF02003EFF3118483F359
:1036E0001288BFF36F8F084B9A68D37B0133D37373
:1036F0000020FFF70BFE84F31188BFF36F8FBDE846
:10370000104001F063BB00BF54090020024B03F1DD
:103710001802C3E90622704754090020F8B54FF09B
:103720002003EFF3118583F31288BFF36F8F1949DC
:103730008868437B03F07F03437301F094FA8B683E
:103740005A7B084662F07F025A7350F8182FCC69F2
:10375000824208BF002222B9C3E900042360CB6182
:103760000CE093F90E6092F90E70BE420ED0B74293
:103770000CDD5168C3E900210B6053600120FFF7A5
:10378000C5FD2846BDE8F840FDF7A8B9A242E3D040
:103790001268E0E75409002050EA01032DE9F041E6
:1037A00005460E4603D1FFF7B9FF00202CE0831C2D
:1037B00071F1FF332ADB01F04AFB2C184FF0200394
:1037C000EFF3118883F31288BFF36F8F114F124B01
:1037D000B8681860FFF726FEB86810492A463346D5
:1037E000183000F09DF8BA68537B43F01003537310
:1037F0004046FDF773F901F02AFB201A63EB03033F
:10380000012873F10003D0DBBDE8F0816FF0010403
:10381000241AD3E75409002074090020754D0000D4
:10382000B1F1FF3F08BFB0F1FF3F08B506D1084B2B
:10383000986801F062FA4FF0FF3008BDFFF7ACFF67
:103840004FF47A7380FB0303C00B40EA4340F4E774
:1038500054090020014B9868704700BF54090020AC
:1038600008B50648064A0749121A01F08FF9BDE863
:103870000840054A0549064801F088B900000020C3
:1038800098010020D454000000000000D45400002F
:1038900000000020034B1B680BB9FEF769BB00203A
:1038A000704700BF8009002010B50E4B1C689C4279
:1038B00004D1FFF7EFFF6FF0004010BDFFF7EAFF04
:1038C000002CF8D0D4E904321B1A62EBE072B3F199
:1038D000004F72F10001EEDA002AACBF184600205A
:1038E000EBE700BFD800002030B570B10B4B5B6830
:1038F00098420AD0036843B1D3E90421D0E90445D2
:10390000121941EB0501C3E90421D0E9003213602B
:103910005A600023C0E9003330BD00BFD80000204A
:10392000B3F1FF3F08BFB2F1FF3FF8B504461D46B3
:1039300016465CD081604FF02003EFF3118783F3CC
:103940001288BFF36F8F013275F1FF3324DA2D49EE
:10395000D1E900206FF001039B1A4FF0FF3262EBB8
:1039600000009E1B60EB0500012E70F1000301DAE0
:1039700001260020C4E90460234ED6F800C0756813
:10398000B44508BF4FF0000CBCF1000F0DD1C4E9E5
:1039900000652C6074601CE0FFF77CFF013645F188
:1039A0000005361845EBE070E4E7DCE90420D4E9D3
:1039B0000431934271EB000E1ADAD21ADCF80430AB
:1039C00060EB0100CCE90420C4E900C31C60CCF822
:1039D00004403368B34206D09C4204D1FFF764FF31
:1039E0000021FEF797FA87F31188BFF36F8FF8BDB8
:1039F0009B1A61EB0001AC45C4E90431C7D0DCF887
:103A000000C0C1E7D0020020D80000202DE9F84F07
:103A10004FF02003EFF3118C83F31288BFF36F8F05
:103A2000DFF8B0A0DFF8B0902C4FC9F80000DAF84A
:103A300000000024504508BF00200025D7E90021E0
:103A4000D9F80030E04680B3D0E9046C4FEAE37E59
:103A5000B3427EEB0C0B05DAF61A6CEB0E04C0E9F0
:103A6000046422E0B21841EBE671C0E90445C7E9FD
:103A70000021FFF739FF88F31188BFF36F8F836848
:103A800098474FF02003EFF3118883F31288BFF3B8
:103A90006F8FD9F80030DAF800009B1B5045C44600
:103AA000C9F80030CAD1D7E900219A1841EBE37375
:103AB0000024C7E90023C9F80040FFF7F5FE2146BE
:103AC000FEF728FA88F31188BFF36F8FBDE8F84F2F
:103AD000FFF728BDD800002080090020D002002078
:103AE00010B54FF02003EFF3118483F31288BFF376
:103AF0006F8FFFF7CFFE064A0346D2E90001181880
:103B000041EBE37184F31188BFF36F8F10BD00BFE9
:103B1000D0020020014800F071BC00BF95540000A5
:103B200010B50A4C23681BB101232360002010BD8F
:103B300000F0EAF80028F7D00138062803D8044B33
:103B400053F8200010BD034810BD00BF84090020B9
:103B5000E4520000FE8FFFFFBFF34F8F0549064B75
:103B6000CA6802F4E0621343CB60BFF34F8F00BF1B
:103B7000FDE700BF00ED00E00400FA0510B4094BBA
:103B800009490A4C4FF0FE32C3F800244968C3F8D3
:103B90000424C3F80824C3F80C240023C4F8003517
:103BA00010BC084700B00250E000002000A0025006
:103BB000D0E90012014BC3E900127047E000002079
:103BC00010B5044650B1636813F0685F05D0064A2B
:103BD000934202D000232360626010BD034B04486F
:103BE0005B689847EFE700BF2C5F5CA9E00000200E
:103BF00000530000C8B143680D4A934213D013F03C
:103C0000685F0ED0012350E8002F194640E8001CE1
:103C10009CF0000FF7D1012AF5D0BFF35F8F002091
:103C2000704704487047044870476FF4E04070479D
:103C30002C5F5CA9E98FFFFFEA8FFFFF80B143682B
:103C4000094A93420AD013F0685F05D0BFF35F8F33
:103C500000230360184670470448704704487047C3
:103C60006FF4E040704700BF2C5F5CA9E98FFFFF55
:103C7000EA8FFFFF10B5044620B1044B63600022B9
:103C8000226010BD0248FFF779FFF6E73A00003ADC
:103C90002853000070B5D0E90023174C174D63601E
:103CA000D0E90230C4E9023022604868D1F800C08F
:103CB000134BC3E900C0D5F81801D1F808C0C3F808
:103CC00008C010F0685FD1F80CC00969C3F80CC0D7
:103CD000196110D00B49C5F8BC110023C5E9453165
:103CE00005F58A70C5F8B8319047236805F5DC7092
:103CF000BDE87040184770BDFC0000209C09002002
:103D0000E80000202C5F5CA938B500F02FF820B146
:103D1000032400F063F8204638BD00F031F898B96C
:103D200000F0ACF898B90F4DD5F828391B0EF02BE0
:103D300008D1D5F8242A0C4B9A420AD0072400F067
:103D400017F8E6E70624FAE70424204638BD0024E5
:103D5000F5E7012000F092F804460028F7D1C5F8F5
:103D60000C0AD8E700B002500000E02000207047A5
:103D700000207047014BC3F8040A704700B002509E
:103D800010B5114800F048F800B110BD0F4800F020
:103D900043F80028F9D10E4C204600F03DF80028E9
:103DA000F3D10C4B0C481C6000F036F8014600289B
:103DB000EBD100F02DF8044608B1204610BD00F00C
:103DC0003FF82046FAE700BF3C0100203801002000
:103DD000340100202C0100203001002008B50848E3
:103DE00000F024F8074800F021F8074800F01EF81A
:103DF000064800F01BF8BDE8084000F00BB800BF13
:103E00003C01002038010020340100203001002056
:103E100000207047704700BF08B5034B02681B685D
:103E200010689847002008BDFC00002008B5034B2F
:103E300002685B6810689847002008BDFC000020FD
:103E400070B5094C094D2069AB68984718B1084B0B
:103E500008485B689847084AEB68206900211160B0
:103E6000BDE87040184700BFE8000020FC000020BB
:103E7000E00000204C53000098090020F8B51A4DCE
:103E80001A4E0446B26828699047E8B9184F3B6853
:103E90004CB1A3B1012B19D0013B3B602869F368F9
:103EA00098470020F8BD43B9124A0121C2F8001515
:103EB0001149D1F81029002AFBD101333B60F36886
:103EC000286998470020F8BD0C48F8BD0A4AD2F886
:103ED0001039002BFBD1074A6FF07E40C2F8003545
:103EE000FFF748FF3B68D7E7E8000020FC00002010
:103EF0009809002000A0025000B00250E98FFFFF97
:103F00002DE9F04F8DB043680293837815469A07E8
:103F1000804640F10D8100240E78002E00F00A81C9
:103F2000252E0BD04B1C03930134029B4146304697
:103F300098470028C0F2F6800399EDE74E788B1C75
:103F4000252E0393F0D00027B946BB46BBF11F0FC7
:103F500038D8A6F12003102B0AD8DFE803F02A098D
:103F600009300909092109090928092D09091F0032
:103F7000A6F13003092B33D92A2E37D11BF0400F7D
:103F800055F8043B40F08280002BA7BF4BF0200B7C
:103F90009946C3F100094BF0280B01E04BF0010BEF
:103FA000039B13F8016B0393002ECFD130E04BF04D
:103FB000020B4BF0040BF3E74BF0080BF0E74BF070
:103FC000100BEDE7BBF17F0F19D8A6F13003092BD9
:103FD000D2D81BF0400F03D00A2101FB0737DFE7DF
:103FE0000A2101FB09394BF0200BD9E72E2E06D10F
:103FF0001BF0400F40F09E804BF0400BD0E76C2E42
:1040000031D02BD8682E36D06A2E3CD04C2E3AD0E8
:10401000002F46F02003B8BF2BF04002A3F165014A
:10402000BCBF1FFA82FB0027022901D9612B2FD1C7
:10403000073525F00705DFF8ACA2083507271BF088
:10404000080F66D00AEB070B56465E4563D1A4EB1A
:104050000A0A06EB0A02A9EB07096FE1742E9FD04A
:104060007A2E9DD0D4E71BF0800F18BF4BF4007B55
:104070004BF0800B94E71BF4807F18BF4BF4007B60
:104080004BF4807B8CE74BF4207B89E71F4687E766
:10409000A6F16301122900F2F080DFE811F01300AD
:1040A0004F00EE00EE00EE00EE004F00EE00EE00DE
:1040B000EE00EE00EE00FE00E900EE00EE001B0058
:1040C000EE00AF0055F8043B8DF8183001270DF1D4
:1040D000180AB4E755F804AB834BBAF1000F08BFD8
:1040E0009A461BF0400F14BF39464FF0FF3150463F
:1040F00000F0C7FE0746A2E7029B414620209847F2
:1041000000280FDB013EB742F6D34C44A41BB14656
:1041100098E74E46F7E716F8010B029B4146984791
:10412000002892DA98F8023043F0040388F802304D
:104130004FF0FF3420460DB0BDE8F08F1BF0800F2C
:1041400034D01BF4007F2CD0073525F00705AA4694
:1041500069685AF8080B2BF010050029ADB237DA60
:10416000404261EB410145F480650DF1180B0A23D3
:104170005A4600F092FEA0EB0B0301936B0662D54A
:10418000019B25F001019F4289B240F3A180002EDE
:1041900000F0998015F0100240F09C80BB460D465F
:1041A00023E0AA465AF8040BC117D4E7AA461BF429
:1041B000807F5AF8041B01D10846F5E71BF4007F05
:1041C00015BF48B208B241F3C01141F3C031C2E794
:1041D00050EA0103C9D11BF0400FC6D0002FC4D153
:1041E0002BF0110295B2BB46019740F2064115EA49
:1041F00001021CBF0BF1010B00222CE02BF010027E
:104200001FFA82FB0A231BF0800C49D01BF40071BB
:104210001DBF073525F00705AA46AA461ABF5AF85A
:10422000080B69685AF8040B50EA010545D12BF0D8
:1042300016051BF0400FADB242D0002F40D12BF03D
:10424000170295B2019715F0100248D0019B002E7D
:1042500042D103F1010B29075AD4EB0706D5D94502
:104260006FDD0199A9EB0B035F18CB465B4649E074
:104270004BF0100B10237826C5E7782B04D1C6F13C
:10428000780343F01003BEE7029B41462520984780
:104290000028FFF647AF023447E608230026B2E7BE
:1042A000AA461BF480715AF8040BBDD01BF40071B0
:1042B0001ABFC0B2614680B2B6E72BF0060295B2D3
:1042C0000DF1180B54E725F01105ADB2BB468CE794
:1042D0000D46B8E73B460D4603F1020BBBE7DDF8A0
:1042E00004B082E7CA540000C3540000CDE9043290
:1042F0004146029B202098470028FFF613AF049BFD
:10430000059A01339945F1DCA4EB0B01CC189B46CF
:104310000AB3029B4146302098470028FFF602AFBF
:104320008EB901342744019B391B994224DC1D4678
:104330005DBB019AA9EB0B092244554614469144F2
:1043400035E0019F92E7023441463046029B984790
:104350000028E7DAE6E640F206410D42E2D015F029
:10436000020F14BF2B20202015F4806F04F10104EC
:10437000414618BF2D20E9E7029B4146302098476F
:10438000002804F10104CEDACCE606AB013D41463B
:10439000585D029B98470028CADAC3E6029B414653
:1043A00020209847002804F10104FFF6BBAEA9EBDA
:1043B0000403002BF2DCBFE57047F0B403460A4665
:1043C0001979DB8800681343DC028768066906D523
:1043D00013F4402F03D0DA0748BF83F44023346836
:1043E00001258D4023F48012DB074CBF2C43AC43E6
:1043F00034603B68F0BC1847002070470FB407B525
:1044000004A951F8040B0191FBF7F2FE03B05DF82B
:1044100004EB04B0704700EBC100408840087047CF
:10442000F8B50346FFF7F7FFB0FA80F0C0F11F00C0
:1044300003EB800CCA00DCF81060171D0C46063236
:104440008DB256B9012101FA00F0D9680143D96053
:10445000CCF81040DD539D52F8BDF1000431585A9C
:10446000D85303EBC0009E52C5805D52F4E7043A76
:104470002DE9F041CC1D114424F0070421F007017F
:104480000E1BF708B7FA87F2C2F12405AD004FF012
:1044900000080735C2F12002ED0804604146A7601C
:1044A000C4F80C80920004F1100000F0E2FC6B00F4
:1044B00043F00103638004EBC5027B1B5900A4F8A1
:1044C00000805180A21924F83550A2F80280A3532D
:1044D00004EBC70329465A8842F001025A8020465D
:1044E000BDE8F041FFF79CBF038B13F0070305D134
:1044F0000368002B0CBF002003207047022B05D15E
:10450000408BB0FA80F0400980007047012B05D144
:104510000368002B0CBF0020052070470020704767
:1045200010B50C4600B111B96FF0150010BD081D93
:1045300000F095F80028F9D1A368032BF6D9F3E72A
:104540002DE9F0410D4607461946281D90461E46A6
:1045500000F096F8044638B13346424629463846BC
:10456000A446BDE8F0416047BDE8F08110B44FF0CB
:104570002004EFF3118284F31288BFF36F8F41613F
:1045800010BC0121FBF766BE38B50C46054658B194
:1045900051B10B6843B14B6833B11C22002100F0CC
:1045A00068FC2C61002038BD6FF01500FBE770B58A
:1045B00005460E46FFF7B4FF041E15DB4FF020033F
:1045C000EFF3118283F31288BFF36F8F6B8B2C8B09
:1045D0004FF6FF718B4204F0070407D182F3118874
:1045E000BFF36F8F6FF00A04204670BD022C0CD110
:1045F00001336B8382F31188BFF36F8F0023224650
:1046000031462846FFF79CFFEEE7062C14D8DFE87A
:1046100004F004131313041A0400002333606B68BE
:104620003BB9C5E90066ACB902212846FBF712FE8A
:10463000DAE71E606E60F6E782F31188BFF36F8FD2
:104640006FF00404D0E782F31188BFF36F8F6FF02F
:104650008504C9E782F31188BFF36F8FC4E703466F
:1046600058B1426802F00302012A03D0032A04D1A0
:10467000026812B10020986070476FF01500704713
:104680004268816002F00302032A4FF000020346F1
:104690000CBF006810465A607047704708B500208C
:1046A000FBF7E6FEFEF7F8BA01460068FEF7F4BA3B
:1046B00008B5FBF7E7FFBDE80840FCF715B8002197
:1046C0000120FFF7EFBF202809D9B0F1004F08D82B
:1046D0000138B0FA80F0C0F11F0040007047082098
:1046E00070473E2070472DE9FF410E46984614461C
:1046F00005460027B74220DA6868C8B1B8F1000F54
:1047000007D0431E184216D11F2814D92A68134215
:1047100011D12B680193FFF7D6FFAB6803430393D6
:10472000E3B2072B07D8204601A9FCF73FFB013471
:1047300001370C35DEE76FF01504204604B0BDE804
:10474000F08108B5FCF710FC002008BD0369C9B270
:104750000C2201FB0233186C00F0070070474FF089
:104760002003EFF3118283F31288BFF36F8F036886
:1047700003F0C00343F00203036082F31188BFF328
:104780006F8F704770B5C9B203694FF02004EFF323
:10479000118584F31288BFF36F8F0C2606FB01345A
:1047A000246C14F0C00408D0A24206D085F311880E
:1047B000BFF36F8F4FF0FF3070BD06FB0133012256
:1047C0001A6485F31188BFF36F8F436803EBC1034D
:1047D0005B6898470020EFE78022FFF7D3BFF8B56A
:1047E000069F0469C9B24FF02005EFF3118685F3E7
:1047F0001288BFF36F8F0C2505FB0144256C05F073
:10480000070CBCF1010F0CD1276486F31188BFF3AC
:104810006F8FC4E90E23436853F831309847002066
:10482000F8BD05F0C005AF4286F31188BFF36F8F66
:104830000CBF6FF077004FF0FF30F1E713B5802425
:104840000094FFF7CCFF02B010BD10B40069CBB2EA
:104850001C2403FB0400002110BC10470020FDF7BE
:104860006FBD002000F0F7B81046FEF7ADBC4368FE
:104870005B68D3F810350B600020704743685B68B5
:1048800002EA010021EA0201C3F80805C3F80C1589
:104890000020704743685B680020C3F80815704724
:1048A00043685B680020C3F80C15704743685A687A
:1048B000D2F8043521EA03000B40C2F80805C2F81B
:1048C0000C350020704710B503695868F8B188426C
:1048D00019D19C6808685860A14200D198600020F6
:1048E00008602AB15A680A609A68596002B99960EA
:1048F000002010E0814206D108682060986881425B
:10490000EDD19C60EBE7044600680028F2D1002A54
:10491000E8D16FF0150010BD30B543681360057A1B
:10492000446804EBC504A34202D36FF0010030BD1C
:104930005C798C4201D00833F0E70020F7E7436848
:104940001B68D3F88004C3F8800470474368026989
:104950001B68D3F8100150B15269002012780A7018
:10496000C3F81001D3F8102101221A6070474FF0EC
:10497000FF30704702680346D2F8580140B95B68BF
:104980009B0706D4D2F82001003818BF01207047D9
:104990000120704742681368D3F80413C90518D57D
:1049A000D3F82011A9B14FF02000EFF3118180F36B
:1049B0001288BFF36F8FD3F8200130B10020C3F805
:1049C0002001D3F820010120D86081F31188BFF3C2
:1049D0006F8F5268D20615D54FF02001EFF3118288
:1049E00081F31288BFF36F8FD3F8581111B10021F2
:1049F000C3F800154FF48001C3F8081382F311883F
:104A0000BFF36F8F704700F150039B009BB203F11F
:104A1000804303F5883300221A601B68704708B58D
:104A20000020FBF7EFFFFFF77BB808B5FBF73EFD73
:104A3000FBF712FEBDE80840FFF772B8004700F030
:104A400093B8C00000F1804000F5F830C0F81015B0
:104A5000C0F814257047FDF7EFBBF7B5019001A82A
:104A6000DDE9084716461D46FDF7F2FC019BB6F14D
:104A7000000C18BF4FF0010C00EB83000B1E18BF99
:104A80000123002D43EA4C0314BF4FF00C0C4FF0F0
:104A9000000C002C43EA0C0314BF4FF4E06C4FF001
:104AA000000C002F43EA0C03D0F8002714BF4FF48A
:104AB000403C4FF0000C43EA0C0322EA030301B12F
:104AC00009780EB13678760019430DB12D78AD0016
:104AD00031430CB12478240229430FB13F783F04BD
:104AE0000C433C43C0F8004703B0F0BD1FB50DF1C7
:104AF0000F03019300238DF80F1000931A461946F7
:104B0000FFF7ABFF05B05DF804FB38B50546084676
:104B10000C46FDF7EFFCB0B10846FDF7DFFC90B99D
:104B20000846FDF7CFFC2A6801238340C2F808330A
:104B30002A6803B202EB8303D3F8102522F00302A4
:104B4000C3F8102538BD20460021BDE83840FFF7E6
:104B5000CDBFFDF755BDFFF7D8BFFEF769B808B563
:104B6000FFF7FBFF002008BD08B1FCF745BA70470E
:104B7000704740B1C368587810F001001EBF187824
:104B8000B0FA80F04009704700F073B900F063B9E3
:104B900082684369134313F003030CD1C3600169B6
:104BA000994201D800207047C16811604169C26014
:104BB00001330A44F3E76FF01500704710B5C0E900
:104BC00004320023816083610446FFF7E1FF00287F
:104BD000A8BFC4E9004410BDF8B504460D464FF027
:104BE0002003EFF3118683F31288BFF36F8FC7683A
:104BF0006FB900F0C3F850B18767456100F06DF8F8
:104C0000314604F10800BDE8F840FEF71FBDE36837
:104C10002B60A369E560013BA36186F31188BFF3B4
:104C20006F8FF8BDEFF30580003818BF0120704783
:104C300008B54FF02002EFF3118382F31288BFF31F
:104C40006F8FFCF75DF8F4E790F90E308B4201D0DE
:104C5000FEF7B6BC0020704703460020C3E90200FF
:104C6000C3E900337047D0E9003213605A60002373
:104C7000C0E90033704708B5FFF7F5FF437B23F029
:104C8000020343730023836008BD38B504460D4614
:104C9000FEF7C8FB637B43F002036373E5B1A560D5
:104CA0002B689D4209D16B68C4E900531C606C609D
:104CB00012E06A689342F6D01B68002BF3D094F997
:104CC0000E2093F90E108A42F3D09142F1DD5A681A
:104CD000C4E9003214605C6038BD10B54FF02003A9
:104CE000EFF3118483F31288BFF36F8FFEF766FB37
:104CF00084F31188BFF36F8F10BD10B504461830D0
:104D000000F08FF84FF02003EFF3118183F3128846
:104D1000BFF36F8F627B12F0100204D081F3118811
:104D2000BFF36F8F10BD2046BDE81040FEF7AABB51
:104D300038B504464FF02003EFF3118583F3128852
:104D4000BFF36F8F437B13F0280F0BD183680BB138
:104D5000FFF791FF637B51B903F0FB0363732046B8
:104D6000FEF72CFB85F31188BFF36F8F38BD03F07E
:104D7000EB03F3E701211838FFF7DABF38B54FF03E
:104D80002003EFF3118583F31288BFF36F8F04685C
:104D9000A0420DD034B12046FFF76DFF04F118009A
:104DA00000F03FF885F31188BFF36F8F204638BDC0
:104DB0000024F7E7034620B9EFF305820AB9FBF7B1
:104DC0008DBE83F31188BFF36F8F70474FF02003C0
:104DD000EFF3118083F31288BFF36F8FFFF7EABF01
:104DE0004FF02002EFF3118182F31288BFF36F8F2F
:104DF000027BD2070AD581F31188BFF36F8F404041
:104E000080F311884FF0040002DF7047437B1B07DB
:104E100004D581F31188BFF36F8F70470122FEF72D
:104E200031BB10B54FF02002EFF3118482F31288EA
:104E3000BFF36F8F03683BB1FEF756FD002084F38C
:104E40001188BFF36F8F10BD6FF01500F7E708B53D
:104E5000FEF746FE08BD0A44914200F1FF3300D13F
:104E6000704710B511F8014B03F8014F9142F9D189
:104E700010BD02440346934200D1704703F8011B62
:104E8000F9E710B5024601448A42134603D01C7864
:104E90000132002CF8D1181A10BDF0B5C3F1370754
:104EA0000446FFB203F01F031046082BE6B233D0CE
:104EB000102B3ED06508A40844EA817445EAC17508
:104EC0002D194FEA910242EB5102290941EA027180
:104ED0006D1842EB1212290A41EA02616D1842EB89
:104EE0001222290C41EA02416D1842EB1242AD1820
:104EF00042F10002EC0844EA4274D10804EB840257
:104F0000A6EB4205EDB2092D0CD90134A5F10A0535
:104F100041F10001EDB212E0E40844EA417406F008
:104F20000705C908303554EA010200F8015BBCD11D
:104F3000F0BD240944EA017406F00F050909092DA2
:104F400084BFED19EDB2EDE701480068704700003D
:044F5000F407002042
:104F5400B50F00000000000085100000B44F0000F1
:104F64005F4B000000000000C52E000000000000A0
:104F740045140000DC4F000045140000C84F000039
:104F8400274A0000000000002D180000F04F000028
:104F9400F512000000000000B11D00000000000038
:104FA400910F0000000000002B4A000000000000E8
:104FB400175400000C5200001C5200004001002055
:104FC40028080020265400003852000068520000CF
:104FD400420100207C08002034540000505200009C
:104FE4006852000044010020880800204A54000050
:104FF4008C520000C0520000460100203400002002
:10500400E92300003D4A000000000000BF46000004
:10501400F04F00009549000000000000BF4600006A
:1050240000000000BF46000000000000BF46000072
:10503400692A00003D4A000000000000BF4600004D
:1050440000000000BF46000000000000BF46000052
:1050540000000000BF46000000000000BF46000042
:1050640000000000BF46000000000000BF46000032
:1050740000000000BF46000000000000BF46000022
:1050840000000000BF46000000000000411E0000B8
:1050940000000000BF46000000000000BF46000002
:1050A40000000000BF46000000000000BF460000F2
:1050B40000000000BF46000000000000BF460000E2
:1050C40000000000BF46000000000000BF460000D2
:1050D40000000000BF46000000000000BF460000C2
:1050E40000000000BF46000000000000BF460000B2
:1050F40000000000BF46000000000000BF460000A2
:1051040000000000BF46000000000000BF46000091
:1051140000000000BF46000000000000BF46000081
:1051240000000000BF46000000000000BF46000071
:1051340000000000BF46000000000000BF46000061
:1051440000000000BF46000000000000BF46000051
:1051540000000000BF46000000000000BF46000041
:1051640000000000BF46000000000000BF46000031
:1051740000000000BF46000000000000BF46000021
:0C518400FFFFFFFFFFFFFFFFFFFFFFFF2B
:105190000338FDD870470000DC4F00000B00110001
:1051A000DC4F00000D000100000000009D460000E3
:1051B0001C000020140000200C0000200000000053
:1051C00004000020C5050000B90400000D05000022
:1051D0006D050000000000200000000000000B062C
:1051E00002000000E851000000000000025400002E
:1051F00026000207000000200A54000022000B11C4
:105200004110000011100000000000002D110000EE
:10521000C51100005D4800006348000091110000C6
:10522000D94700003D480000000000004D47000045
:105230000000000000000000FFFF0000000300501D
:1052400000000000010000000060004000000000BD
:10525000BCF801FF0000005000000000000000004A
:105260000060004000000000D91400006F480000FA
:105270007D48000095480000A1480000AD480000AE
:1052800045130000C7480000000000000020004057
:1052900002000000000000009C52000000200040BE
:1052A000A852000001000000B052000004000000FD
:1052B00006000000050002008801010087010300CC
:1052C0004D490000851A00003F490000544F00007E
:1052D000544F00009C4F0000A44F0000B44F00004A
:1052E000B44F0000FF8FFFFFFF8FFFFFFE8FFFFF18
:1052F000FE8FFFFFFD8FFFFFFC8FFFFFFC8FFFFF87
:105300006D757465785F667265652063616C6C6548
:10531000642077697468204E554C4C20706172612E
:105320006D6574657200000043616E277420696EBC
:10533000697469616C697A65206D757465782C2073
:10534000776173204E554C4C0D0A0000436F756C0D
:1053500064206E6F74206C6F636B20706F77657262
:105360002073617665206D75746578004F4E004F2F
:1053700046460053797374656D20746F67676C657A
:10538000642025730A004661696C656420746F208F
:105390007265626F6F743A207370696E6E696E67C2
:1053A00020656E646C6573736C792E2E2E0A006D09
:1053B000757465785F696E69742063616C6C65648F
:1053C0002077697468204E554C4C20706172616D75
:1053D0006574657200436F756C64206E6F74206134
:1053E0006C6C6F63617465206D757465782062659F
:1053F000666F726520696E697469616C697A696E3D
:105400006700464C4153485F30005352414D5F3076
:1054100000000001000000636C6F636B40343030AB
:105420003030303030006770696F403530303030A8
:10543000333030006770696F403530303030303095
:1054400030000001020304050607756172744034E0
:1054500030303032303030000000000000010100F8
:10546000000000000020303030303030303030303C
:105470003030303000015465726D696E616C00002F
:105480000000000000545452205245474745530045
:105490006D61696E002A2A2A20426F6F74696E67F7
:1054A000206E524620436F6E6E6563742053444BEA
:1054B0002076332E352E39392D6E637331202A2A0A
:1054C0002A0A00286E756C6C29002A666C6F61745C
:0454D0002A000000AE
:1054D400F94300005C0100203A0000007001002044
:1054E4003A000000480100203A0000008401002036
:1054F4003A000000000000004347000000000000E4
:10550400000000000000000000C2010000010300D0
:10551400000000005E0B00205D0B00200000000076
:105524000000000000000000000000000000000077
:105534000000000000000000000000000000000067
:105544000000000000000000000000000000000057
:105554000000000000000000000000000000000047
:105564000000000000000000000000000000000037
:105574000000000000000000000000000000000027
:105584000000000000000000000000000000000017
:1055940008000000FF0000000000000003000000FD
:1055A40000000000FFFF0F00D8000020D8000020FA
:1055B40000000000593B0000240100201C010020D1
:1055C40014010020000000000C010020753C0000C4
:1055D400C13B0000F53B00003D3C00008809002071
:1055E4003A00003A8C0900203A00003A9009002061
:1055F4003A00003A940900203A00003A34010020AD
:10560400F8000020F0000020EC000020E80000205A
:0856140000000000000000008E
:10561C0048010020480100200000000000000000AC
:10562C000E0000005C0100205C0100200000000066
:10563C00000000000E00000070010020700100202E
:10564C0000000000000000000E000000840100209B
:10565C008401002000000000000000000E0000008B
:04566C0015E015E050
:04000003000009B13F
:00000001FF
